{
  "contractName": "ERC1155",
  "abi": [
    {
      "constant": true,
      "inputs": [
        {
          "name": "",
          "type": "uint256"
        }
      ],
      "name": "metadataURIs",
      "outputs": [
        {
          "name": "",
          "type": "string"
        }
      ],
      "payable": false,
      "stateMutability": "view",
      "type": "function"
    },
    {
      "constant": true,
      "inputs": [
        {
          "name": "",
          "type": "uint256"
        }
      ],
      "name": "items",
      "outputs": [
        {
          "name": "name",
          "type": "string"
        },
        {
          "name": "totalSupply",
          "type": "uint256"
        }
      ],
      "payable": false,
      "stateMutability": "view",
      "type": "function"
    },
    {
      "constant": true,
      "inputs": [
        {
          "name": "",
          "type": "uint256"
        }
      ],
      "name": "symbols",
      "outputs": [
        {
          "name": "",
          "type": "string"
        }
      ],
      "payable": false,
      "stateMutability": "view",
      "type": "function"
    },
    {
      "constant": true,
      "inputs": [
        {
          "name": "",
          "type": "uint256"
        }
      ],
      "name": "_decimals",
      "outputs": [
        {
          "name": "",
          "type": "uint8"
        }
      ],
      "payable": false,
      "stateMutability": "view",
      "type": "function"
    },
    {
      "constant": true,
      "inputs": [
        {
          "name": "",
          "type": "uint256"
        },
        {
          "name": "",
          "type": "address"
        },
        {
          "name": "",
          "type": "address"
        }
      ],
      "name": "allowances",
      "outputs": [
        {
          "name": "",
          "type": "uint256"
        }
      ],
      "payable": false,
      "stateMutability": "view",
      "type": "function"
    },
    {
      "anonymous": false,
      "inputs": [
        {
          "indexed": true,
          "name": "_owner",
          "type": "address"
        },
        {
          "indexed": true,
          "name": "_spender",
          "type": "address"
        },
        {
          "indexed": true,
          "name": "_id",
          "type": "uint256"
        },
        {
          "indexed": false,
          "name": "_oldValue",
          "type": "uint256"
        },
        {
          "indexed": false,
          "name": "_value",
          "type": "uint256"
        }
      ],
      "name": "Approval",
      "type": "event"
    },
    {
      "anonymous": false,
      "inputs": [
        {
          "indexed": false,
          "name": "_spender",
          "type": "address"
        },
        {
          "indexed": true,
          "name": "_from",
          "type": "address"
        },
        {
          "indexed": true,
          "name": "_to",
          "type": "address"
        },
        {
          "indexed": true,
          "name": "_id",
          "type": "uint256"
        },
        {
          "indexed": false,
          "name": "_value",
          "type": "uint256"
        }
      ],
      "name": "Transfer",
      "type": "event"
    },
    {
      "constant": false,
      "inputs": [
        {
          "name": "_from",
          "type": "address"
        },
        {
          "name": "_to",
          "type": "address"
        },
        {
          "name": "_id",
          "type": "uint256"
        },
        {
          "name": "_value",
          "type": "uint256"
        }
      ],
      "name": "transferFrom",
      "outputs": [],
      "payable": false,
      "stateMutability": "nonpayable",
      "type": "function"
    },
    {
      "constant": false,
      "inputs": [
        {
          "name": "_from",
          "type": "address"
        },
        {
          "name": "_to",
          "type": "address"
        },
        {
          "name": "_id",
          "type": "uint256"
        },
        {
          "name": "_value",
          "type": "uint256"
        },
        {
          "name": "_data",
          "type": "bytes"
        }
      ],
      "name": "safeTransferFrom",
      "outputs": [],
      "payable": false,
      "stateMutability": "nonpayable",
      "type": "function"
    },
    {
      "constant": false,
      "inputs": [
        {
          "name": "_spender",
          "type": "address"
        },
        {
          "name": "_id",
          "type": "uint256"
        },
        {
          "name": "_currentValue",
          "type": "uint256"
        },
        {
          "name": "_value",
          "type": "uint256"
        }
      ],
      "name": "approve",
      "outputs": [],
      "payable": false,
      "stateMutability": "nonpayable",
      "type": "function"
    },
    {
      "constant": true,
      "inputs": [
        {
          "name": "_id",
          "type": "uint256"
        },
        {
          "name": "_owner",
          "type": "address"
        }
      ],
      "name": "balanceOf",
      "outputs": [
        {
          "name": "",
          "type": "uint256"
        }
      ],
      "payable": false,
      "stateMutability": "view",
      "type": "function"
    },
    {
      "constant": true,
      "inputs": [
        {
          "name": "_id",
          "type": "uint256"
        },
        {
          "name": "_owner",
          "type": "address"
        },
        {
          "name": "_spender",
          "type": "address"
        }
      ],
      "name": "allowance",
      "outputs": [
        {
          "name": "",
          "type": "uint256"
        }
      ],
      "payable": false,
      "stateMutability": "view",
      "type": "function"
    },
    {
      "constant": false,
      "inputs": [
        {
          "name": "_to",
          "type": "address"
        },
        {
          "name": "_id",
          "type": "uint256"
        },
        {
          "name": "_value",
          "type": "uint256"
        }
      ],
      "name": "transfer",
      "outputs": [],
      "payable": false,
      "stateMutability": "nonpayable",
      "type": "function"
    },
    {
      "constant": false,
      "inputs": [
        {
          "name": "_to",
          "type": "address"
        },
        {
          "name": "_id",
          "type": "uint256"
        },
        {
          "name": "_value",
          "type": "uint256"
        },
        {
          "name": "_data",
          "type": "bytes"
        }
      ],
      "name": "safeTransfer",
      "outputs": [],
      "payable": false,
      "stateMutability": "nonpayable",
      "type": "function"
    },
    {
      "constant": false,
      "inputs": [
        {
          "name": "_from",
          "type": "address"
        },
        {
          "name": "_to",
          "type": "address"
        },
        {
          "name": "_ids",
          "type": "uint256[]"
        },
        {
          "name": "_values",
          "type": "uint256[]"
        }
      ],
      "name": "batchTransferFrom",
      "outputs": [],
      "payable": false,
      "stateMutability": "nonpayable",
      "type": "function"
    },
    {
      "constant": false,
      "inputs": [
        {
          "name": "_from",
          "type": "address"
        },
        {
          "name": "_to",
          "type": "address"
        },
        {
          "name": "_ids",
          "type": "uint256[]"
        },
        {
          "name": "_values",
          "type": "uint256[]"
        },
        {
          "name": "_data",
          "type": "bytes"
        }
      ],
      "name": "safeBatchTransferFrom",
      "outputs": [],
      "payable": false,
      "stateMutability": "nonpayable",
      "type": "function"
    },
    {
      "constant": false,
      "inputs": [
        {
          "name": "_spender",
          "type": "address"
        },
        {
          "name": "_ids",
          "type": "uint256[]"
        },
        {
          "name": "_currentValues",
          "type": "uint256[]"
        },
        {
          "name": "_values",
          "type": "uint256[]"
        }
      ],
      "name": "batchApprove",
      "outputs": [],
      "payable": false,
      "stateMutability": "nonpayable",
      "type": "function"
    },
    {
      "constant": false,
      "inputs": [
        {
          "name": "_to",
          "type": "address"
        },
        {
          "name": "_ids",
          "type": "uint256[]"
        },
        {
          "name": "_values",
          "type": "uint256[]"
        }
      ],
      "name": "batchTransfer",
      "outputs": [],
      "payable": false,
      "stateMutability": "nonpayable",
      "type": "function"
    },
    {
      "constant": false,
      "inputs": [
        {
          "name": "_to",
          "type": "address"
        },
        {
          "name": "_ids",
          "type": "uint256[]"
        },
        {
          "name": "_values",
          "type": "uint256[]"
        },
        {
          "name": "_data",
          "type": "bytes"
        }
      ],
      "name": "safeBatchTransfer",
      "outputs": [],
      "payable": false,
      "stateMutability": "nonpayable",
      "type": "function"
    },
    {
      "constant": true,
      "inputs": [
        {
          "name": "_id",
          "type": "uint256"
        }
      ],
      "name": "name",
      "outputs": [
        {
          "name": "",
          "type": "string"
        }
      ],
      "payable": false,
      "stateMutability": "view",
      "type": "function"
    },
    {
      "constant": true,
      "inputs": [
        {
          "name": "_id",
          "type": "uint256"
        }
      ],
      "name": "symbol",
      "outputs": [
        {
          "name": "",
          "type": "string"
        }
      ],
      "payable": false,
      "stateMutability": "view",
      "type": "function"
    },
    {
      "constant": true,
      "inputs": [
        {
          "name": "_id",
          "type": "uint256"
        }
      ],
      "name": "decimals",
      "outputs": [
        {
          "name": "",
          "type": "uint8"
        }
      ],
      "payable": false,
      "stateMutability": "view",
      "type": "function"
    },
    {
      "constant": true,
      "inputs": [
        {
          "name": "_id",
          "type": "uint256"
        }
      ],
      "name": "totalSupply",
      "outputs": [
        {
          "name": "",
          "type": "uint256"
        }
      ],
      "payable": false,
      "stateMutability": "view",
      "type": "function"
    },
    {
      "constant": true,
      "inputs": [
        {
          "name": "_id",
          "type": "uint256"
        }
      ],
      "name": "uri",
      "outputs": [
        {
          "name": "",
          "type": "string"
        }
      ],
      "payable": false,
      "stateMutability": "view",
      "type": "function"
    },
    {
      "constant": false,
      "inputs": [
        {
          "name": "_to",
          "type": "address[]"
        },
        {
          "name": "_ids",
          "type": "uint256[]"
        },
        {
          "name": "_values",
          "type": "uint256[]"
        }
      ],
      "name": "multicastTransfer",
      "outputs": [],
      "payable": false,
      "stateMutability": "nonpayable",
      "type": "function"
    },
    {
      "constant": false,
      "inputs": [
        {
          "name": "_to",
          "type": "address[]"
        },
        {
          "name": "_ids",
          "type": "uint256[]"
        },
        {
          "name": "_values",
          "type": "uint256[]"
        },
        {
          "name": "_data",
          "type": "bytes"
        }
      ],
      "name": "safeMulticastTransfer",
      "outputs": [],
      "payable": false,
      "stateMutability": "nonpayable",
      "type": "function"
    }
  ],
  "bytecode": "0x608060405234801561001057600080fd5b5061392f806100206000396000f3fe60806040526004361061013d576000357c0100000000000000000000000000000000000000000000000000000000900463ffffffff168062ad800c14610142578063095bcdb6146101f65780630d550b751461025b5780630e89341c146102ea57806317fad7fc1461039e5780632eb2c2d6146104b95780633656eec214610629578063368b2842146106985780633f47e662146107e85780634e41a1fb1461083d5780634ed5c558146108f15780634f4df442146109a557806367fd9da314610a14578063ae28b68c14610b44578063bd85b03914610bfe578063bfb231d214610c4d578063ccce413b14610d08578063d1bab4cc14610dbc578063d29c18f914610f0c578063dbd3c37214610f61578063e39c6d80146110e6578063e70d6dc5146111e1578063f242432a14611270578063fe99049a1461134a575b600080fd5b34801561014e57600080fd5b5061017b6004803603602081101561016557600080fd5b81019080803590602001909291905050506113cf565b6040518080602001828103825283818151815260200191508051906020019080838360005b838110156101bb5780820151818401526020810190506101a0565b50505050905090810190601f1680156101e85780820380516001836020036101000a031916815260200191505b509250505060405180910390f35b34801561020257600080fd5b506102596004803603606081101561021957600080fd5b81019080803573ffffffffffffffffffffffffffffffffffffffff1690602001909291908035906020019092919080359060200190929190505050611487565b005b34801561026757600080fd5b506102d46004803603606081101561027e57600080fd5b8101908080359060200190929190803573ffffffffffffffffffffffffffffffffffffffff169060200190929190803573ffffffffffffffffffffffffffffffffffffffff1690602001909291905050506116a0565b6040518082815260200191505060405180910390f35b3480156102f657600080fd5b506103236004803603602081101561030d57600080fd5b8101908080359060200190929190505050611739565b6040518080602001828103825283818151815260200191508051906020019080838360005b83811015610363578082015181840152602081019050610348565b50505050905090810190601f1680156103905780820380516001836020036101000a031916815260200191505b509250505060405180910390f35b3480156103aa57600080fd5b506104b7600480360360808110156103c157600080fd5b81019080803573ffffffffffffffffffffffffffffffffffffffff169060200190929190803573ffffffffffffffffffffffffffffffffffffffff1690602001909291908035906020019064010000000081111561041e57600080fd5b82018360208201111561043057600080fd5b8035906020019184602083028401116401000000008311171561045257600080fd5b90919293919293908035906020019064010000000081111561047357600080fd5b82018360208201111561048557600080fd5b803590602001918460208302840111640100000000831117156104a757600080fd5b90919293919293905050506117ee565b005b3480156104c557600080fd5b50610627600480360360a08110156104dc57600080fd5b81019080803573ffffffffffffffffffffffffffffffffffffffff169060200190929190803573ffffffffffffffffffffffffffffffffffffffff1690602001909291908035906020019064010000000081111561053957600080fd5b82018360208201111561054b57600080fd5b8035906020019184602083028401116401000000008311171561056d57600080fd5b90919293919293908035906020019064010000000081111561058e57600080fd5b8201836020820111156105a057600080fd5b803590602001918460208302840111640100000000831117156105c257600080fd5b9091929391929390803590602001906401000000008111156105e357600080fd5b8201836020820111156105f557600080fd5b8035906020019184600183028401116401000000008311171561061757600080fd5b9091929391929390505050611e24565b005b34801561063557600080fd5b506106826004803603604081101561064c57600080fd5b8101908080359060200190929190803573ffffffffffffffffffffffffffffffffffffffff169060200190929190505050612024565b6040518082815260200191505060405180910390f35b3480156106a457600080fd5b506107e6600480360360808110156106bb57600080fd5b81019080803573ffffffffffffffffffffffffffffffffffffffff169060200190929190803590602001906401000000008111156106f857600080fd5b82018360208201111561070a57600080fd5b8035906020019184602083028401116401000000008311171561072c57600080fd5b90919293919293908035906020019064010000000081111561074d57600080fd5b82018360208201111561075f57600080fd5b8035906020019184602083028401116401000000008311171561078157600080fd5b9091929391929390803590602001906401000000008111156107a257600080fd5b8201836020820111156107b457600080fd5b803590602001918460018302840111640100000000831117156107d657600080fd5b9091929391929390505050612082565b005b3480156107f457600080fd5b506108216004803603602081101561080b57600080fd5b810190808035906020019092919050505061224d565b604051808260ff1660ff16815260200191505060405180910390f35b34801561084957600080fd5b506108766004803603602081101561086057600080fd5b8101908080359060200190929190505050612276565b6040518080602001828103825283818151815260200191508051906020019080838360005b838110156108b657808201518184015260208101905061089b565b50505050905090810190601f1680156108e35780820380516001836020036101000a031916815260200191505b509250505060405180910390f35b3480156108fd57600080fd5b5061092a6004803603602081101561091457600080fd5b810190808035906020019092919050505061232b565b6040518080602001828103825283818151815260200191508051906020019080838360005b8381101561096a57808201518184015260208101905061094f565b50505050905090810190601f1680156109975780820380516001836020036101000a031916815260200191505b509250505060405180910390f35b3480156109b157600080fd5b50610a12600480360360808110156109c857600080fd5b81019080803573ffffffffffffffffffffffffffffffffffffffff1690602001909291908035906020019092919080359060200190929190803590602001909291905050506123db565b005b348015610a2057600080fd5b50610b4260048036036060811015610a3757600080fd5b8101908080359060200190640100000000811115610a5457600080fd5b820183602082011115610a6657600080fd5b80359060200191846020830284011164010000000083111715610a8857600080fd5b909192939192939080359060200190640100000000811115610aa957600080fd5b820183602082011115610abb57600080fd5b80359060200191846020830284011164010000000083111715610add57600080fd5b909192939192939080359060200190640100000000811115610afe57600080fd5b820183602082011115610b1057600080fd5b80359060200191846020830284011164010000000083111715610b3257600080fd5b9091929391929390505050612587565b005b348015610b5057600080fd5b50610bfc60048036036080811015610b6757600080fd5b81019080803573ffffffffffffffffffffffffffffffffffffffff169060200190929190803590602001909291908035906020019092919080359060200190640100000000811115610bb857600080fd5b820183602082011115610bca57600080fd5b80359060200191846001830284011164010000000083111715610bec57600080fd5b9091929391929390505050612824565b005b348015610c0a57600080fd5b50610c3760048036036020811015610c2157600080fd5b810190808035906020019092919050505061294a565b6040518082815260200191505060405180910390f35b348015610c5957600080fd5b50610c8660048036036020811015610c7057600080fd5b810190808035906020019092919050505061296a565b6040518080602001838152602001828103825284818151815260200191508051906020019080838360005b83811015610ccc578082015181840152602081019050610cb1565b50505050905090810190601f168015610cf95780820380516001836020036101000a031916815260200191505b50935050505060405180910390f35b348015610d1457600080fd5b50610d4160048036036020811015610d2b57600080fd5b8101908080359060200190929190505050612a26565b6040518080602001828103825283818151815260200191508051906020019080838360005b83811015610d81578082015181840152602081019050610d66565b50505050905090810190601f168015610dae5780820380516001836020036101000a031916815260200191505b509250505060405180910390f35b348015610dc857600080fd5b50610f0a60048036036080811015610ddf57600080fd5b81019080803573ffffffffffffffffffffffffffffffffffffffff16906020019092919080359060200190640100000000811115610e1c57600080fd5b820183602082011115610e2e57600080fd5b80359060200191846020830284011164010000000083111715610e5057600080fd5b909192939192939080359060200190640100000000811115610e7157600080fd5b820183602082011115610e8357600080fd5b80359060200191846020830284011164010000000083111715610ea557600080fd5b909192939192939080359060200190640100000000811115610ec657600080fd5b820183602082011115610ed857600080fd5b80359060200191846020830284011164010000000083111715610efa57600080fd5b9091929391929390505050612ad6565b005b348015610f1857600080fd5b50610f4560048036036020811015610f2f57600080fd5b8101908080359060200190929190505050612cfd565b604051808260ff1660ff16815260200191505060405180910390f35b348015610f6d57600080fd5b506110e460048036036080811015610f8457600080fd5b8101908080359060200190640100000000811115610fa157600080fd5b820183602082011115610fb357600080fd5b80359060200191846020830284011164010000000083111715610fd557600080fd5b909192939192939080359060200190640100000000811115610ff657600080fd5b82018360208201111561100857600080fd5b8035906020019184602083028401116401000000008311171561102a57600080fd5b90919293919293908035906020019064010000000081111561104b57600080fd5b82018360208201111561105d57600080fd5b8035906020019184602083028401116401000000008311171561107f57600080fd5b9091929391929390803590602001906401000000008111156110a057600080fd5b8201836020820111156110b257600080fd5b803590602001918460018302840111640100000000831117156110d457600080fd5b9091929391929390505050612d1d565b005b3480156110f257600080fd5b506111df6004803603606081101561110957600080fd5b81019080803573ffffffffffffffffffffffffffffffffffffffff1690602001909291908035906020019064010000000081111561114657600080fd5b82018360208201111561115857600080fd5b8035906020019184602083028401116401000000008311171561117a57600080fd5b90919293919293908035906020019064010000000081111561119b57600080fd5b8201836020820111156111ad57600080fd5b803590602001918460208302840111640100000000831117156111cf57600080fd5b9091929391929390505050612f16565b005b3480156111ed57600080fd5b5061125a6004803603606081101561120457600080fd5b8101908080359060200190929190803573ffffffffffffffffffffffffffffffffffffffff169060200190929190803573ffffffffffffffffffffffffffffffffffffffff169060200190929190505050613181565b6040518082815260200191505060405180910390f35b34801561127c57600080fd5b50611348600480360360a081101561129357600080fd5b81019080803573ffffffffffffffffffffffffffffffffffffffff169060200190929190803573ffffffffffffffffffffffffffffffffffffffff16906020019092919080359060200190929190803590602001909291908035906020019064010000000081111561130457600080fd5b82018360208201111561131657600080fd5b8035906020019184600183028401116401000000008311171561133857600080fd5b90919293919293905050506131b3565b005b34801561135657600080fd5b506113cd6004803603608081101561136d57600080fd5b81019080803573ffffffffffffffffffffffffffffffffffffffff169060200190929190803573ffffffffffffffffffffffffffffffffffffffff169060200190929190803590602001909291908035906020019092919050505061330e565b005b6060600360008381526020019081526020016000206000018054600181600116156101000203166002900480601f01602080910402602001604051908101604052809291908181526020018280546001816001161561010002031660029004801561147b5780601f106114505761010080835404028352916020019161147b565b820191906000526020600020905b81548152906001019060200180831161145e57829003601f168201915b50505050509050919050565b6114ed816003600085815260200190815260200160002060020160003373ffffffffffffffffffffffffffffffffffffffff1673ffffffffffffffffffffffffffffffffffffffff1681526020019081526020016000205461368f90919063ffffffff16565b6003600084815260200190815260200160002060020160003373ffffffffffffffffffffffffffffffffffffffff1673ffffffffffffffffffffffffffffffffffffffff168152602001908152602001600020819055506115aa6003600084815260200190815260200160002060020160008573ffffffffffffffffffffffffffffffffffffffff1673ffffffffffffffffffffffffffffffffffffffff16815260200190815260200160002054826136a890919063ffffffff16565b6003600084815260200190815260200160002060020160008573ffffffffffffffffffffffffffffffffffffffff1673ffffffffffffffffffffffffffffffffffffffff16815260200190815260200160002081905550818373ffffffffffffffffffffffffffffffffffffffff163373ffffffffffffffffffffffffffffffffffffffff167f1b3d7edb2e9c0b0e7c525b20aaaef0f5940d2ed71663c7d39266ecafac7288593385604051808373ffffffffffffffffffffffffffffffffffffffff1673ffffffffffffffffffffffffffffffffffffffff1681526020018281526020019250505060405180910390a4505050565b60006002600085815260200190815260200160002060008473ffffffffffffffffffffffffffffffffffffffff1673ffffffffffffffffffffffffffffffffffffffff16815260200190815260200160002060008373ffffffffffffffffffffffffffffffffffffffff1673ffffffffffffffffffffffffffffffffffffffff1681526020019081526020016000205490509392505050565b6060600460008381526020019081526020016000208054600181600116156101000203166002900480601f0160208091040260200160405190810160405280929190818152602001828054600181600116156101000203166002900480156117e25780601f106117b7576101008083540402835291602001916117e2565b820191906000526020600020905b8154815290600101906020018083116117c557829003601f168201915b50505050509050919050565b6000803373ffffffffffffffffffffffffffffffffffffffff168873ffffffffffffffffffffffffffffffffffffffff161415611a895760008090505b86869050811015611a8357868682818110151561184457fe5b905060200201359250848482818110151561185b57fe5b9050602002013591506118ca826003600086815260200190815260200160002060020160008c73ffffffffffffffffffffffffffffffffffffffff1673ffffffffffffffffffffffffffffffffffffffff1681526020019081526020016000205461368f90919063ffffffff16565b6003600085815260200190815260200160002060020160008b73ffffffffffffffffffffffffffffffffffffffff1673ffffffffffffffffffffffffffffffffffffffff168152602001908152602001600020819055506119876003600085815260200190815260200160002060020160008a73ffffffffffffffffffffffffffffffffffffffff1673ffffffffffffffffffffffffffffffffffffffff16815260200190815260200160002054836136a890919063ffffffff16565b6003600085815260200190815260200160002060020160008a73ffffffffffffffffffffffffffffffffffffffff1673ffffffffffffffffffffffffffffffffffffffff16815260200190815260200160002081905550828873ffffffffffffffffffffffffffffffffffffffff168a73ffffffffffffffffffffffffffffffffffffffff167f1b3d7edb2e9c0b0e7c525b20aaaef0f5940d2ed71663c7d39266ecafac7288593386604051808373ffffffffffffffffffffffffffffffffffffffff1673ffffffffffffffffffffffffffffffffffffffff1681526020018281526020019250505060405180910390a480600101905061182b565b50611e1a565b60008090505b86869050811015611e18578686828181101515611aa857fe5b9050602002013592508484828181101515611abf57fe5b905060200201359150611b68826002600086815260200190815260200160002060008c73ffffffffffffffffffffffffffffffffffffffff1673ffffffffffffffffffffffffffffffffffffffff16815260200190815260200160002060003373ffffffffffffffffffffffffffffffffffffffff1673ffffffffffffffffffffffffffffffffffffffff1681526020019081526020016000205461368f90919063ffffffff16565b6002600085815260200190815260200160002060008b73ffffffffffffffffffffffffffffffffffffffff1673ffffffffffffffffffffffffffffffffffffffff16815260200190815260200160002060003373ffffffffffffffffffffffffffffffffffffffff1673ffffffffffffffffffffffffffffffffffffffff16815260200190815260200160002081905550611c5f826003600086815260200190815260200160002060020160008c73ffffffffffffffffffffffffffffffffffffffff1673ffffffffffffffffffffffffffffffffffffffff1681526020019081526020016000205461368f90919063ffffffff16565b6003600085815260200190815260200160002060020160008b73ffffffffffffffffffffffffffffffffffffffff1673ffffffffffffffffffffffffffffffffffffffff16815260200190815260200160002081905550611d1c6003600085815260200190815260200160002060020160008a73ffffffffffffffffffffffffffffffffffffffff1673ffffffffffffffffffffffffffffffffffffffff16815260200190815260200160002054836136a890919063ffffffff16565b6003600085815260200190815260200160002060020160008a73ffffffffffffffffffffffffffffffffffffffff1673ffffffffffffffffffffffffffffffffffffffff16815260200190815260200160002081905550828873ffffffffffffffffffffffffffffffffffffffff168a73ffffffffffffffffffffffffffffffffffffffff167f1b3d7edb2e9c0b0e7c525b20aaaef0f5940d2ed71663c7d39266ecafac7288593386604051808373ffffffffffffffffffffffffffffffffffffffff1673ffffffffffffffffffffffffffffffffffffffff1681526020018281526020019250505060405180910390a4806001019050611a8f565b505b5050505050505050565b3073ffffffffffffffffffffffffffffffffffffffff166317fad7fc8989898989896040518763ffffffff167c0100000000000000000000000000000000000000000000000000000000028152600401808773ffffffffffffffffffffffffffffffffffffffff1673ffffffffffffffffffffffffffffffffffffffff1681526020018673ffffffffffffffffffffffffffffffffffffffff1673ffffffffffffffffffffffffffffffffffffffff16815260200180602001806020018381038352878782818152602001925060200280828437600081840152601f19601f8201169050808301925050508381038252858582818152602001925060200280828437600081840152601f19601f82011690508083019250505098505050505050505050600060405180830381600087803b158015611f6157600080fd5b505af1158015611f75573d6000803e3d6000fd5b5050505060008090505b868690508110156120195761200389898989858181101515611f9d57fe5b905060200201358888868181101515611fb257fe5b9050602002013587878080601f016020809104026020016040519081016040528093929190818152602001838380828437600081840152601f19601f820116905080830192505050505050506136c4565b151561200e57600080fd5b806001019050611f7f565b505050505050505050565b60006003600084815260200190815260200160002060020160008373ffffffffffffffffffffffffffffffffffffffff1673ffffffffffffffffffffffffffffffffffffffff16815260200190815260200160002054905092915050565b3073ffffffffffffffffffffffffffffffffffffffff1663e39c6d8088888888886040518663ffffffff167c0100000000000000000000000000000000000000000000000000000000028152600401808673ffffffffffffffffffffffffffffffffffffffff1673ffffffffffffffffffffffffffffffffffffffff16815260200180602001806020018381038352878782818152602001925060200280828437600081840152601f19601f8201169050808301925050508381038252858582818152602001925060200280828437600081840152601f19601f820116905080830192505050975050505050505050600060405180830381600087803b15801561218b57600080fd5b505af115801561219f573d6000803e3d6000fd5b5050505060008090505b868690508110156122435761222d338989898581811015156121c757fe5b9050602002013588888681811015156121dc57fe5b9050602002013587878080601f016020809104026020016040519081016040528093929190818152602001838380828437600081840152601f19601f820116905080830192505050505050506136c4565b151561223857600080fd5b8060010190506121a9565b5050505050505050565b600080600083815260200190815260200160002060009054906101000a900460ff169050919050565b6060600160008381526020019081526020016000208054600181600116156101000203166002900480601f01602080910402602001604051908101604052809291908181526020018280546001816001161561010002031660029004801561231f5780601f106122f45761010080835404028352916020019161231f565b820191906000526020600020905b81548152906001019060200180831161230257829003601f168201915b50505050509050919050565b60046020528060005260406000206000915090508054600181600116156101000203166002900480601f0160208091040260200160405190810160405280929190818152602001828054600181600116156101000203166002900480156123d35780601f106123a8576101008083540402835291602001916123d3565b820191906000526020600020905b8154815290600101906020018083116123b657829003601f168201915b505050505081565b60008114806124765750816002600085815260200190815260200160002060003373ffffffffffffffffffffffffffffffffffffffff1673ffffffffffffffffffffffffffffffffffffffff16815260200190815260200160002060008673ffffffffffffffffffffffffffffffffffffffff1673ffffffffffffffffffffffffffffffffffffffff16815260200190815260200160002054145b151561248157600080fd5b806002600085815260200190815260200160002060003373ffffffffffffffffffffffffffffffffffffffff1673ffffffffffffffffffffffffffffffffffffffff16815260200190815260200160002060008673ffffffffffffffffffffffffffffffffffffffff1673ffffffffffffffffffffffffffffffffffffffff16815260200190815260200160002081905550828473ffffffffffffffffffffffffffffffffffffffff163373ffffffffffffffffffffffffffffffffffffffff167f3a9c85c6b31f7a9d7fe1478f53e1be42e85db97ca30d1789cfef9196dbc472c98585604051808381526020018281526020019250505060405180910390a450505050565b60008090505b8686905081101561281b57600085858381811015156125a857fe5b905060200201359050600084848481811015156125c157fe5b905060200201359050600089898581811015156125da57fe5b9050602002013573ffffffffffffffffffffffffffffffffffffffff16905061265f826003600086815260200190815260200160002060020160003373ffffffffffffffffffffffffffffffffffffffff1673ffffffffffffffffffffffffffffffffffffffff1681526020019081526020016000205461368f90919063ffffffff16565b6003600085815260200190815260200160002060020160003373ffffffffffffffffffffffffffffffffffffffff1673ffffffffffffffffffffffffffffffffffffffff1681526020019081526020016000208190555061271c6003600085815260200190815260200160002060020160008373ffffffffffffffffffffffffffffffffffffffff1673ffffffffffffffffffffffffffffffffffffffff16815260200190815260200160002054836136a890919063ffffffff16565b6003600085815260200190815260200160002060020160008373ffffffffffffffffffffffffffffffffffffffff1673ffffffffffffffffffffffffffffffffffffffff16815260200190815260200160002081905550828173ffffffffffffffffffffffffffffffffffffffff163373ffffffffffffffffffffffffffffffffffffffff167f1b3d7edb2e9c0b0e7c525b20aaaef0f5940d2ed71663c7d39266ecafac7288593386604051808373ffffffffffffffffffffffffffffffffffffffff1673ffffffffffffffffffffffffffffffffffffffff1681526020018281526020019250505060405180910390a450505080600101905061258d565b50505050505050565b3073ffffffffffffffffffffffffffffffffffffffff1663095bcdb68686866040518463ffffffff167c0100000000000000000000000000000000000000000000000000000000028152600401808473ffffffffffffffffffffffffffffffffffffffff1673ffffffffffffffffffffffffffffffffffffffff1681526020018381526020018281526020019350505050600060405180830381600087803b1580156128cf57600080fd5b505af11580156128e3573d6000803e3d6000fd5b505050506129383386868686868080601f016020809104026020016040519081016040528093929190818152602001838380828437600081840152601f19601f820116905080830192505050505050506136c4565b151561294357600080fd5b5050505050565b600060036000838152602001908152602001600020600101549050919050565b6003602052806000526040600020600091509050806000018054600181600116156101000203166002900480601f016020809104026020016040519081016040528092919081815260200182805460018160011615610100020316600290048015612a165780601f106129eb57610100808354040283529160200191612a16565b820191906000526020600020905b8154815290600101906020018083116129f957829003601f168201915b5050505050908060010154905082565b60016020528060005260406000206000915090508054600181600116156101000203166002900480601f016020809104026020016040519081016040528092919081815260200182805460018160011615610100020316600290048015612ace5780601f10612aa357610100808354040283529160200191612ace565b820191906000526020600020905b815481529060010190602001808311612ab157829003601f168201915b505050505081565b60008060008090505b88889050811015612cf1578888828181101515612af857fe5b9050602002013592508484828181101515612b0f57fe5b9050602002013591506000821480612bc757508686828181101515612b3057fe5b905060200201356002600085815260200190815260200160002060003373ffffffffffffffffffffffffffffffffffffffff1673ffffffffffffffffffffffffffffffffffffffff16815260200190815260200160002060008c73ffffffffffffffffffffffffffffffffffffffff1673ffffffffffffffffffffffffffffffffffffffff16815260200190815260200160002054145b1515612bd257600080fd5b816002600085815260200190815260200160002060003373ffffffffffffffffffffffffffffffffffffffff1673ffffffffffffffffffffffffffffffffffffffff16815260200190815260200160002060008c73ffffffffffffffffffffffffffffffffffffffff1673ffffffffffffffffffffffffffffffffffffffff16815260200190815260200160002081905550828a73ffffffffffffffffffffffffffffffffffffffff163373ffffffffffffffffffffffffffffffffffffffff167f3a9c85c6b31f7a9d7fe1478f53e1be42e85db97ca30d1789cfef9196dbc472c98a8a868181101515612cc257fe5b9050602002013586604051808381526020018281526020019250505060405180910390a4806001019050612adf565b50505050505050505050565b60006020528060005260406000206000915054906101000a900460ff1681565b3073ffffffffffffffffffffffffffffffffffffffff166367fd9da38989898989896040518763ffffffff167c01000000000000000000000000000000000000000000000000000000000281526004018080602001806020018060200184810384528a8a82818152602001925060200280828437600081840152601f19601f8201169050808301925050508481038352888882818152602001925060200280828437600081840152601f19601f8201169050808301925050508481038252868682818152602001925060200280828437600081840152601f19601f8201169050808301925050509950505050505050505050600060405180830381600087803b158015612e2957600080fd5b505af1158015612e3d573d6000803e3d6000fd5b5050505060008090505b86869050811015612f0b57612ef5338a8a848181101515612e6457fe5b9050602002013573ffffffffffffffffffffffffffffffffffffffff168989858181101515612e8f57fe5b905060200201358888868181101515612ea457fe5b9050602002013587878080601f016020809104026020016040519081016040528093929190818152602001838380828437600081840152601f19601f820116905080830192505050505050506136c4565b1515612f0057600080fd5b806001019050612e47565b505050505050505050565b60008060008090505b86869050811015613177578686828181101515612f3857fe5b9050602002013592508484828181101515612f4f57fe5b905060200201359150612fbe826003600086815260200190815260200160002060020160003373ffffffffffffffffffffffffffffffffffffffff1673ffffffffffffffffffffffffffffffffffffffff1681526020019081526020016000205461368f90919063ffffffff16565b6003600085815260200190815260200160002060020160003373ffffffffffffffffffffffffffffffffffffffff1673ffffffffffffffffffffffffffffffffffffffff1681526020019081526020016000208190555061307b6003600085815260200190815260200160002060020160008a73ffffffffffffffffffffffffffffffffffffffff1673ffffffffffffffffffffffffffffffffffffffff16815260200190815260200160002054836136a890919063ffffffff16565b6003600085815260200190815260200160002060020160008a73ffffffffffffffffffffffffffffffffffffffff1673ffffffffffffffffffffffffffffffffffffffff16815260200190815260200160002081905550828873ffffffffffffffffffffffffffffffffffffffff163373ffffffffffffffffffffffffffffffffffffffff167f1b3d7edb2e9c0b0e7c525b20aaaef0f5940d2ed71663c7d39266ecafac7288593386604051808373ffffffffffffffffffffffffffffffffffffffff1673ffffffffffffffffffffffffffffffffffffffff1681526020018281526020019250505060405180910390a4806001019050612f1f565b5050505050505050565b600260205282600052604060002060205281600052604060002060205280600052604060002060009250925050505481565b3073ffffffffffffffffffffffffffffffffffffffff1663fe99049a878787876040518563ffffffff167c0100000000000000000000000000000000000000000000000000000000028152600401808573ffffffffffffffffffffffffffffffffffffffff1673ffffffffffffffffffffffffffffffffffffffff1681526020018473ffffffffffffffffffffffffffffffffffffffff1673ffffffffffffffffffffffffffffffffffffffff168152602001838152602001828152602001945050505050600060405180830381600087803b15801561329257600080fd5b505af11580156132a6573d6000803e3d6000fd5b505050506132fb8686868686868080601f016020809104026020016040519081016040528093929190818152602001838380828437600081840152601f19601f820116905080830192505050505050506136c4565b151561330657600080fd5b505050505050565b3373ffffffffffffffffffffffffffffffffffffffff168473ffffffffffffffffffffffffffffffffffffffff16141515613475576133e3816002600085815260200190815260200160002060008773ffffffffffffffffffffffffffffffffffffffff1673ffffffffffffffffffffffffffffffffffffffff16815260200190815260200160002060003373ffffffffffffffffffffffffffffffffffffffff1673ffffffffffffffffffffffffffffffffffffffff1681526020019081526020016000205461368f90919063ffffffff16565b6002600084815260200190815260200160002060008673ffffffffffffffffffffffffffffffffffffffff1673ffffffffffffffffffffffffffffffffffffffff16815260200190815260200160002060003373ffffffffffffffffffffffffffffffffffffffff1673ffffffffffffffffffffffffffffffffffffffff168152602001908152602001600020819055505b6134db816003600085815260200190815260200160002060020160008773ffffffffffffffffffffffffffffffffffffffff1673ffffffffffffffffffffffffffffffffffffffff1681526020019081526020016000205461368f90919063ffffffff16565b6003600084815260200190815260200160002060020160008673ffffffffffffffffffffffffffffffffffffffff1673ffffffffffffffffffffffffffffffffffffffff168152602001908152602001600020819055506135986003600084815260200190815260200160002060020160008573ffffffffffffffffffffffffffffffffffffffff1673ffffffffffffffffffffffffffffffffffffffff16815260200190815260200160002054826136a890919063ffffffff16565b6003600084815260200190815260200160002060020160008573ffffffffffffffffffffffffffffffffffffffff1673ffffffffffffffffffffffffffffffffffffffff16815260200190815260200160002081905550818373ffffffffffffffffffffffffffffffffffffffff168573ffffffffffffffffffffffffffffffffffffffff167f1b3d7edb2e9c0b0e7c525b20aaaef0f5940d2ed71663c7d39266ecafac7288593385604051808373ffffffffffffffffffffffffffffffffffffffff1673ffffffffffffffffffffffffffffffffffffffff1681526020018281526020019250505060405180910390a450505050565b600082821115151561369d57fe5b818303905092915050565b600081830190508281101515156136bb57fe5b80905092915050565b60006136e58573ffffffffffffffffffffffffffffffffffffffff166138f0565b15156136f457600190506138e7565b60008573ffffffffffffffffffffffffffffffffffffffff1663f23a6e6133898888886040518663ffffffff167c0100000000000000000000000000000000000000000000000000000000028152600401808673ffffffffffffffffffffffffffffffffffffffff1673ffffffffffffffffffffffffffffffffffffffff1681526020018573ffffffffffffffffffffffffffffffffffffffff1673ffffffffffffffffffffffffffffffffffffffff16815260200184815260200183815260200180602001828103825283818151815260200191508051906020019080838360005b838110156137f25780820151818401526020810190506137d7565b50505050905090810190601f16801561381f5780820380516001836020036101000a031916815260200191505b509650505050505050602060405180830381600087803b15801561384257600080fd5b505af1158015613856573d6000803e3d6000fd5b505050506040513d602081101561386c57600080fd5b8101908080519060200190929190505050905063f23a6e617c0100000000000000000000000000000000000000000000000000000000027bffffffffffffffffffffffffffffffffffffffffffffffffffffffff1916817bffffffffffffffffffffffffffffffffffffffffffffffffffffffff1916149150505b95945050505050565b600080823b90506000811191505091905056fea165627a7a723058204b6d7cd044af1273c55486b6a58566934f219e370e1cea84b283a10e61a272210029",
  "source": "pragma solidity ^0.5.0;\n\nimport \"./SafeMath.sol\";\nimport \"./Address.sol\";\nimport \"./IERC1155.sol\";\n\ncontract ERC1155 is IERC1155, IERC1155Extended, IERC1155BatchTransfer, IERC1155BatchTransferExtended {\n    using SafeMath for uint256;\n    using Address for address;\n\n    // Variables\n    struct Items {\n        string name;\n        uint256 totalSupply;\n        mapping (address => uint256) balances;\n    }\n    mapping (uint256 => uint8) public _decimals;\n    mapping (uint256 => string) public symbols;\n    mapping (uint256 => mapping(address => mapping(address => uint256))) public allowances;\n    mapping (uint256 => Items) public items;\n    mapping (uint256 => string) public metadataURIs;\n\n    bytes4 constant private ERC1155_RECEIVED = 0xf23a6e61;\n\n/////////////////////////////////////////// IERC1155 //////////////////////////////////////////////\n\n    // Events\n    event Approval(address indexed _owner, address indexed _spender, uint256 indexed _id, uint256 _oldValue, uint256 _value);\n    event Transfer(address _spender, address indexed _from, address indexed _to, uint256 indexed _id, uint256 _value);\n\n    function transferFrom(address _from, address _to, uint256 _id, uint256 _value) external {\n        if(_from != msg.sender) {\n            //require(allowances[_id][_from][msg.sender] >= _value);\n            allowances[_id][_from][msg.sender] = allowances[_id][_from][msg.sender].sub(_value);\n        }\n\n        items[_id].balances[_from] = items[_id].balances[_from].sub(_value);\n        items[_id].balances[_to] = _value.add(items[_id].balances[_to]);\n\n        emit Transfer(msg.sender, _from, _to, _id, _value);\n    }\n\n    function safeTransferFrom(address _from, address _to, uint256 _id, uint256 _value, bytes calldata _data) external {\n        this.transferFrom(_from, _to, _id, _value);\n\n        // solium-disable-next-line arg-overflow\n        require(_checkAndCallSafeTransfer(_from, _to, _id, _value, _data));\n    }\n\n    function approve(address _spender, uint256 _id, uint256 _currentValue, uint256 _value) external {\n        // if the allowance isn't 0, it can only be updated to 0 to prevent an allowance change immediately after withdrawal\n        require(_value == 0 || allowances[_id][msg.sender][_spender] == _currentValue);\n        allowances[_id][msg.sender][_spender] = _value;\n        emit Approval(msg.sender, _spender, _id, _currentValue, _value);\n    }\n\n    function balanceOf(uint256 _id, address _owner) external view returns (uint256) {\n        return items[_id].balances[_owner];\n    }\n\n    function allowance(uint256 _id, address _owner, address _spender) external view returns (uint256) {\n        return allowances[_id][_owner][_spender];\n    }\n\n/////////////////////////////////////// IERC1155Extended //////////////////////////////////////////\n\n    function transfer(address _to, uint256 _id, uint256 _value) external {\n        // Not needed. SafeMath will do the same check on .sub(_value)\n        //require(_value <= items[_id].balances[msg.sender]);\n        items[_id].balances[msg.sender] = items[_id].balances[msg.sender].sub(_value);\n        items[_id].balances[_to] = _value.add(items[_id].balances[_to]);\n        emit Transfer(msg.sender, msg.sender, _to, _id, _value);\n    }\n\n    function safeTransfer(address _to, uint256 _id, uint256 _value, bytes calldata _data) external {\n        this.transfer(_to, _id, _value);\n\n        // solium-disable-next-line arg-overflow\n        require(_checkAndCallSafeTransfer(msg.sender, _to, _id, _value, _data));\n    }\n\n//////////////////////////////////// IERC1155BatchTransfer ////////////////////////////////////////\n\n    function batchTransferFrom(address _from, address _to, uint256[] calldata _ids, uint256[] calldata _values) external {\n        uint256 _id;\n        uint256 _value;\n\n        if(_from == msg.sender) {\n            for (uint256 i = 0; i < _ids.length; ++i) {\n                _id = _ids[i];\n                _value = _values[i];\n\n                items[_id].balances[_from] = items[_id].balances[_from].sub(_value);\n                items[_id].balances[_to] = _value.add(items[_id].balances[_to]);\n\n                emit Transfer(msg.sender, _from, _to, _id, _value);\n            }\n        }\n        else {\n            for (uint256 i = 0; i < _ids.length; ++i) {\n                _id = _ids[i];\n                _value = _values[i];\n\n                allowances[_id][_from][msg.sender] = allowances[_id][_from][msg.sender].sub(_value);\n\n                items[_id].balances[_from] = items[_id].balances[_from].sub(_value);\n                items[_id].balances[_to] = _value.add(items[_id].balances[_to]);\n\n                emit Transfer(msg.sender, _from, _to, _id, _value);\n            }\n        }\n    }\n\n    function safeBatchTransferFrom(address _from, address _to, uint256[] calldata _ids, uint256[] calldata _values, bytes calldata _data) external {\n        this.batchTransferFrom(_from, _to, _ids, _values);\n\n        for (uint256 i = 0; i < _ids.length; ++i) {\n            // solium-disable-next-line arg-overflow\n            require(_checkAndCallSafeTransfer(_from, _to, _ids[i], _values[i], _data));\n        }\n    }\n\n    function batchApprove(address _spender, uint256[] calldata _ids,  uint256[] calldata _currentValues, uint256[] calldata _values) external {\n        uint256 _id;\n        uint256 _value;\n\n        for (uint256 i = 0; i < _ids.length; ++i) {\n            _id = _ids[i];\n            _value = _values[i];\n\n            require(_value == 0 || allowances[_id][msg.sender][_spender] == _currentValues[i]);\n            allowances[_id][msg.sender][_spender] = _value;\n            emit Approval(msg.sender, _spender, _id, _currentValues[i], _value);\n        }\n    }\n\n//////////////////////////////// IERC1155BatchTransferExtended ////////////////////////////////////\n\n    function batchTransfer(address _to, uint256[] calldata _ids, uint256[] calldata _values) external {\n        uint256 _id;\n        uint256 _value;\n\n        for (uint256 i = 0; i < _ids.length; ++i) {\n            _id = _ids[i];\n            _value = _values[i];\n\n            items[_id].balances[msg.sender] = items[_id].balances[msg.sender].sub(_value);\n            items[_id].balances[_to] = _value.add(items[_id].balances[_to]);\n\n            emit Transfer(msg.sender, msg.sender, _to, _id, _value);\n        }\n    }\n\n    function safeBatchTransfer(address _to, uint256[] calldata _ids, uint256[] calldata _values, bytes calldata _data) external {\n        this.batchTransfer(_to, _ids, _values);\n\n        for (uint256 i = 0; i < _ids.length; ++i) {\n            // solium-disable-next-line arg-overflow\n            require(_checkAndCallSafeTransfer(msg.sender, _to, _ids[i], _values[i], _data));\n        }\n    }\n\n//////////////////////////////// IERC1155BatchTransferExtended ////////////////////////////////////\n\n    // Optional meta data view Functions\n    // consider multi-lingual support for name?\n    function name(uint256 _id) external view returns (string memory) {\n        return items[_id].name;\n    }\n\n    function symbol(uint256 _id) external view returns (string memory) {\n        return symbols[_id];\n    }\n\n    //my chnges\n    function decimals(uint256 _id) external view returns (uint8) {\n        return _decimals[_id];\n    }\n\n    function totalSupply(uint256 _id) external view returns (uint256) {\n        return items[_id].totalSupply;\n    }\n\n    function uri(uint256 _id) external view returns (string memory) {\n        return metadataURIs[_id];\n    }\n\n////////////////////////////////////////// OPTIONALS //////////////////////////////////////////////\n\n\n    function multicastTransfer(address[] calldata _to, uint256[] calldata _ids, uint256[] calldata _values) external {\n        for (uint256 i = 0; i < _to.length; ++i) {\n            uint256 _id = _ids[i];\n            uint256 _value = _values[i];\n            address _dst = _to[i];\n\n            items[_id].balances[msg.sender] = items[_id].balances[msg.sender].sub(_value);\n            items[_id].balances[_dst] = _value.add(items[_id].balances[_dst]);\n\n            emit Transfer(msg.sender, msg.sender, _dst, _id, _value);\n        }\n    }\n\n    function safeMulticastTransfer(address[] calldata _to, uint256[] calldata _ids, uint256[] calldata _values, bytes calldata _data) external {\n        this.multicastTransfer(_to, _ids, _values);\n\n        for (uint256 i = 0; i < _ids.length; ++i) {\n            // solium-disable-next-line arg-overflow\n            require(_checkAndCallSafeTransfer(msg.sender, _to[i], _ids[i], _values[i], _data));\n        }\n    }\n\n////////////////////////////////////////// INTERNAL //////////////////////////////////////////////\n\n    function _checkAndCallSafeTransfer(\n        address _from,\n        address _to,\n        uint256 _id,\n        uint256 _value,\n        bytes memory _data\n    )\n    internal\n    returns (bool)\n    {\n        if (!_to.isContract()) {\n            return true;\n        }\n        bytes4 retval = IERC1155TokenReceiver(_to).onERC1155Received(\n            msg.sender, _from, _id, _value, _data);\n        return (retval == ERC1155_RECEIVED);\n    }\n}\n",
  "sourcePath": "/home/jaynil/Desktop/abc/contracts/ERC1155.sol",
  "compiler": {
    "name": "solc",
    "version": "0.5.0+commit.1d4f565a.Emscripten.clang"
  },
  "schemaVersion": "3.0.1",
  "updatedAt": "2019-01-19T20:12:43.988Z",
  "devdoc": {
    "methods": {}
  },
  "userdoc": {
    "methods": {
      "batchTransfer(address,uint256[],uint256[])": {
        "notice": "///////////////////////////// IERC1155BatchTransferExtended ////////////////////////////////////"
      },
      "batchTransferFrom(address,address,uint256[],uint256[])": {
        "notice": "///////////////////////////////// IERC1155BatchTransfer ////////////////////////////////////////"
      },
      "multicastTransfer(address[],uint256[],uint256[])": {
        "notice": "/////////////////////////////////////// OPTIONALS //////////////////////////////////////////////"
      },
      "name(uint256)": {
        "notice": "///////////////////////////// IERC1155BatchTransferExtended ////////////////////////////////////"
      },
      "transfer(address,uint256,uint256)": {
        "notice": "//////////////////////////////////// IERC1155Extended //////////////////////////////////////////"
      }
    }
  }
}