{
  "contractName": "MetaCoin",
  "abi": [
    {
      "constant": true,
      "inputs": [
        {
          "name": "",
          "type": "address"
        },
        {
          "name": "",
          "type": "uint256"
        }
      ],
      "name": "__ownedLands",
      "outputs": [
        {
          "name": "ownerAddress",
          "type": "address"
        },
        {
          "name": "location",
          "type": "string"
        },
        {
          "name": "cost",
          "type": "uint256"
        },
        {
          "name": "landID",
          "type": "uint256"
        }
      ],
      "payable": false,
      "stateMutability": "view",
      "type": "function",
      "signature": "0x05efe9c7"
    },
    {
      "constant": true,
      "inputs": [],
      "name": "totalLandsCounter",
      "outputs": [
        {
          "name": "",
          "type": "uint256"
        }
      ],
      "payable": false,
      "stateMutability": "view",
      "type": "function",
      "signature": "0x82f557ae"
    },
    {
      "constant": true,
      "inputs": [],
      "name": "owner",
      "outputs": [
        {
          "name": "",
          "type": "address"
        }
      ],
      "payable": false,
      "stateMutability": "view",
      "type": "function",
      "signature": "0x8da5cb5b"
    },
    {
      "inputs": [],
      "payable": false,
      "stateMutability": "nonpayable",
      "type": "constructor",
      "signature": "constructor"
    },
    {
      "anonymous": false,
      "inputs": [
        {
          "indexed": false,
          "name": "_owner",
          "type": "address"
        },
        {
          "indexed": false,
          "name": "_landID",
          "type": "uint256"
        }
      ],
      "name": "Add",
      "type": "event",
      "signature": "0x2728c9d3205d667bbc0eefdfeda366261b4d021949630c047f3e5834b30611ab"
    },
    {
      "anonymous": false,
      "inputs": [
        {
          "indexed": true,
          "name": "_from",
          "type": "address"
        },
        {
          "indexed": true,
          "name": "_to",
          "type": "address"
        },
        {
          "indexed": false,
          "name": "_landID",
          "type": "uint256"
        }
      ],
      "name": "Transfer",
      "type": "event",
      "signature": "0xddf252ad1be2c89b69c2b068fc378daa952ba7f163c4a11628f55a4df523b3ef"
    },
    {
      "constant": false,
      "inputs": [
        {
          "name": "_location",
          "type": "string"
        },
        {
          "name": "_cost",
          "type": "uint256"
        }
      ],
      "name": "addLand",
      "outputs": [
        {
          "name": "sufficient",
          "type": "bool"
        }
      ],
      "payable": false,
      "stateMutability": "nonpayable",
      "type": "function",
      "signature": "0xe6ed0fff"
    },
    {
      "constant": false,
      "inputs": [
        {
          "name": "_landBuyer",
          "type": "address"
        },
        {
          "name": "_landID",
          "type": "uint256"
        }
      ],
      "name": "transferLand",
      "outputs": [
        {
          "name": "",
          "type": "bool"
        }
      ],
      "payable": false,
      "stateMutability": "nonpayable",
      "type": "function",
      "signature": "0xb3f40d6a"
    },
    {
      "constant": false,
      "inputs": [
        {
          "name": "_landHolder",
          "type": "address"
        },
        {
          "name": "_index",
          "type": "uint256"
        }
      ],
      "name": "getLand",
      "outputs": [
        {
          "name": "",
          "type": "string"
        },
        {
          "name": "",
          "type": "uint256"
        },
        {
          "name": "",
          "type": "address"
        },
        {
          "name": "",
          "type": "uint256"
        }
      ],
      "payable": false,
      "stateMutability": "nonpayable",
      "type": "function",
      "signature": "0x65742555"
    },
    {
      "constant": false,
      "inputs": [
        {
          "name": "_landHolder",
          "type": "address"
        }
      ],
      "name": "getNoOfLands",
      "outputs": [
        {
          "name": "",
          "type": "uint256"
        }
      ],
      "payable": false,
      "stateMutability": "nonpayable",
      "type": "function",
      "signature": "0xdb9d0551"
    }
  ],
  "bytecode": "0x608060405234801561001057600080fd5b50336000806101000a81548173ffffffffffffffffffffffffffffffffffffffff021916908373ffffffffffffffffffffffffffffffffffffffff160217905550600060018190555061107c806100686000396000f3fe608060405260043610610083576000357c0100000000000000000000000000000000000000000000000000000000900463ffffffff16806305efe9c714610088578063657425551461019d57806382f557ae146102b25780638da5cb5b146102dd578063b3f40d6a14610334578063db9d0551146103a7578063e6ed0fff1461040c575b600080fd5b34801561009457600080fd5b506100e1600480360360408110156100ab57600080fd5b81019080803573ffffffffffffffffffffffffffffffffffffffff169060200190929190803590602001909291905050506104f6565b604051808573ffffffffffffffffffffffffffffffffffffffff1673ffffffffffffffffffffffffffffffffffffffff16815260200180602001848152602001838152602001828103825285818151815260200191508051906020019080838360005b8381101561015f578082015181840152602081019050610144565b50505050905090810190601f16801561018c5780820380516001836020036101000a031916815260200191505b509550505050505060405180910390f35b3480156101a957600080fd5b506101f6600480360360408110156101c057600080fd5b81019080803573ffffffffffffffffffffffffffffffffffffffff169060200190929190803590602001909291905050506105fa565b60405180806020018581526020018473ffffffffffffffffffffffffffffffffffffffff1673ffffffffffffffffffffffffffffffffffffffff168152602001838152602001828103825286818151815260200191508051906020019080838360005b83811015610274578082015181840152602081019050610259565b50505050905090810190601f1680156102a15780820380516001836020036101000a031916815260200191505b509550505050505060405180910390f35b3480156102be57600080fd5b506102c7610845565b6040518082815260200191505060405180910390f35b3480156102e957600080fd5b506102f261084b565b604051808273ffffffffffffffffffffffffffffffffffffffff1673ffffffffffffffffffffffffffffffffffffffff16815260200191505060405180910390f35b34801561034057600080fd5b5061038d6004803603604081101561035757600080fd5b81019080803573ffffffffffffffffffffffffffffffffffffffff16906020019092919080359060200190929190505050610870565b604051808215151515815260200191505060405180910390f35b3480156103b357600080fd5b506103f6600480360360208110156103ca57600080fd5b81019080803573ffffffffffffffffffffffffffffffffffffffff169060200190929190505050610cce565b6040518082815260200191505060405180910390f35b34801561041857600080fd5b506104dc6004803603604081101561042f57600080fd5b810190808035906020019064010000000081111561044c57600080fd5b82018360208201111561045e57600080fd5b8035906020019184600183028401116401000000008311171561048057600080fd5b91908080601f016020809104026020016040519081016040528093929190818152602001838380828437600081840152601f19601f82011690508083019250505050505050919291929080359060200190929190505050610d1a565b604051808215151515815260200191505060405180910390f35b60026020528160005260406000208181548110151561051157fe5b9060005260206000209060040201600091509150508060000160009054906101000a900473ffffffffffffffffffffffffffffffffffffffff1690806001018054600181600116156101000203166002900480601f0160208091040260200160405190810160405280929190818152602001828054600181600116156101000203166002900480156105e45780601f106105b9576101008083540402835291602001916105e4565b820191906000526020600020905b8154815290600101906020018083116105c757829003601f168201915b5050505050908060020154908060030154905084565b60606000806000600260008773ffffffffffffffffffffffffffffffffffffffff1673ffffffffffffffffffffffffffffffffffffffff1681526020019081526020016000208581548110151561064d57fe5b9060005260206000209060040201600101600260008873ffffffffffffffffffffffffffffffffffffffff1673ffffffffffffffffffffffffffffffffffffffff168152602001908152602001600020868154811015156106aa57fe5b906000526020600020906004020160020154600260008973ffffffffffffffffffffffffffffffffffffffff1673ffffffffffffffffffffffffffffffffffffffff1681526020019081526020016000208781548110151561070857fe5b906000526020600020906004020160000160009054906101000a900473ffffffffffffffffffffffffffffffffffffffff16600260008a73ffffffffffffffffffffffffffffffffffffffff1673ffffffffffffffffffffffffffffffffffffffff1681526020019081526020016000208881548110151561078657fe5b906000526020600020906004020160030154838054600181600116156101000203166002900480601f01602080910402602001604051908101604052809291908181526020018280546001816001161561010002031660029004801561082d5780601f106108025761010080835404028352916020019161082d565b820191906000526020600020905b81548152906001019060200180831161081057829003601f168201915b50505050509350935093509350935092959194509250565b60015481565b6000809054906101000a900473ffffffffffffffffffffffffffffffffffffffff1681565b600080600090505b600260003373ffffffffffffffffffffffffffffffffffffffff1673ffffffffffffffffffffffffffffffffffffffff16815260200190815260200160002080549050811015610cc25782600260003373ffffffffffffffffffffffffffffffffffffffff1673ffffffffffffffffffffffffffffffffffffffff1681526020019081526020016000208281548110151561090f57fe5b9060005260206000209060040201600301541415610cb55761092f610f24565b6080604051908101604052808673ffffffffffffffffffffffffffffffffffffffff168152602001600260003373ffffffffffffffffffffffffffffffffffffffff1673ffffffffffffffffffffffffffffffffffffffff168152602001908152602001600020848154811015156109a357fe5b90600052602060002090600402016001018054600181600116156101000203166002900480601f016020809104026020016040519081016040528092919081815260200182805460018160011615610100020316600290048015610a485780601f10610a1d57610100808354040283529160200191610a48565b820191906000526020600020905b815481529060010190602001808311610a2b57829003601f168201915b50505050508152602001600260003373ffffffffffffffffffffffffffffffffffffffff1673ffffffffffffffffffffffffffffffffffffffff16815260200190815260200160002084815481101515610a9e57fe5b9060005260206000209060040201600201548152602001858152509050600260008673ffffffffffffffffffffffffffffffffffffffff1673ffffffffffffffffffffffffffffffffffffffff168152602001908152602001600020819080600181540180825580915050906001820390600052602060002090600402016000909192909190915060008201518160000160006101000a81548173ffffffffffffffffffffffffffffffffffffffff021916908373ffffffffffffffffffffffffffffffffffffffff1602179055506020820151816001019080519060200190610b89929190610f63565b506040820151816002015560608201518160030155505050600260003373ffffffffffffffffffffffffffffffffffffffff1673ffffffffffffffffffffffffffffffffffffffff16815260200190815260200160002082815481101515610bed57fe5b9060005260206000209060040201600080820160006101000a81549073ffffffffffffffffffffffffffffffffffffffff0219169055600182016000610c339190610fe3565b6002820160009055600382016000905550508473ffffffffffffffffffffffffffffffffffffffff163373ffffffffffffffffffffffffffffffffffffffff167fddf252ad1be2c89b69c2b068fc378daa952ba7f163c4a11628f55a4df523b3ef866040518082815260200191505060405180910390a3600192505050610cc8565b8080600101915050610878565b50600090505b92915050565b6000600260008373ffffffffffffffffffffffffffffffffffffffff1673ffffffffffffffffffffffffffffffffffffffff168152602001908152602001600020805490509050919050565b60008060009054906101000a900473ffffffffffffffffffffffffffffffffffffffff1673ffffffffffffffffffffffffffffffffffffffff163373ffffffffffffffffffffffffffffffffffffffff16141515610d7757600080fd5b6001805401600181905550610d8a610f24565b6080604051908101604052803373ffffffffffffffffffffffffffffffffffffffff1681526020018581526020018481526020016001548152509050600260003373ffffffffffffffffffffffffffffffffffffffff1673ffffffffffffffffffffffffffffffffffffffff168152602001908152602001600020819080600181540180825580915050906001820390600052602060002090600402016000909192909190915060008201518160000160006101000a81548173ffffffffffffffffffffffffffffffffffffffff021916908373ffffffffffffffffffffffffffffffffffffffff1602179055506020820151816001019080519060200190610e94929190610f63565b5060408201518160020155606082015181600301555050507f2728c9d3205d667bbc0eefdfeda366261b4d021949630c047f3e5834b30611ab33600154604051808373ffffffffffffffffffffffffffffffffffffffff1673ffffffffffffffffffffffffffffffffffffffff1681526020018281526020019250505060405180910390a1600191505092915050565b608060405190810160405280600073ffffffffffffffffffffffffffffffffffffffff1681526020016060815260200160008152602001600081525090565b828054600181600116156101000203166002900490600052602060002090601f016020900481019282601f10610fa457805160ff1916838001178555610fd2565b82800160010185558215610fd2579182015b82811115610fd1578251825591602001919060010190610fb6565b5b509050610fdf919061102b565b5090565b50805460018160011615610100020316600290046000825580601f106110095750611028565b601f016020900490600052602060002090810190611027919061102b565b5b50565b61104d91905b80821115611049576000816000905550600101611031565b5090565b9056fea165627a7a7230582048a76ebe8c9985790207358b38d85970830d3bb51e68d01aed7a56b41a796f370029",
  "source": "pragma solidity ^0.5.0;\n\nimport \"./ConvertLib.sol\";\n\n// This is just a simple example of a coin-like contract.\n// It is not standards compatible and cannot be expected to talk to other\n// coin/token contracts. If you want to create a standards-compliant\n// token, see: https://github.com/ConsenSys/Tokens. Cheers!\n\n// contract MetaCoin {\n// \tmapping (address => uint) balances;\n\n// \tevent Transfer(address indexed _from, address indexed _to, uint256 _value);\n\n// \tconstructor() public {\n// \t\tbalances[tx.origin] = 10000;\n// \t}\n\n// \tfunction sendCoin(address receiver, uint amount) public returns(bool sufficient) {\n// \t\tif (balances[msg.sender] < amount) return false;\n// \t\tbalances[msg.sender] -= amount;\n// \t\tbalances[receiver] += amount;\n// \t\temit Transfer(msg.sender, receiver, amount);\n// \t\treturn true;\n// \t}\n\n// \tfunction getBalanceInEth(address addr) public view returns(uint){\n// \t\treturn ConvertLib.convert(getBalance(addr),2);\n// \t}\n\n// \tfunction getBalance(address addr) public view returns(uint) {\n// \t\treturn balances[addr];\n// \t}\n// }\n\ncontract MetaCoin\n{\n    struct Land \n    {\n        address ownerAddress;\n        string location;\n        uint cost;\n        uint landID;\n    }\n    address public owner;   // government who creates the contract\n\n    uint public totalLandsCounter; //total no of lands via this contract at any time\n    \n    //define who is owner\n    constructor() public\n    {\n        owner = msg.sender;\n        totalLandsCounter = 0;\n    }\n    \n    //land addition event\n    event Add(address _owner, uint _landID);\n    \n    //land transfer event\n    event Transfer(address indexed _from, address indexed _to, uint _landID);\n    \n    modifier isOwner\n    {\n        require(msg.sender == owner);\n        _;\n    }\n    \n    //one account can hold many lands (many landTokens, each token one land)\n    // key value mapping of address with land array\n    mapping (address => Land[]) public __ownedLands; \n    \n   \n    //owner shall add lands via this function\n    function addLand(string memory _location, uint _cost) public isOwner returns (bool sufficient)\n    {\n        totalLandsCounter = totalLandsCounter + 1;\n        Land memory myLand = Land(\n            {\n            ownerAddress: msg.sender,\n            location: _location,\n            cost: _cost,\n            landID: totalLandsCounter\n            });\n        __ownedLands[msg.sender].push(myLand);\n        emit Add(msg.sender, totalLandsCounter);\n\t\treturn true;\n\n    }\n    \n    \n    //2. SECOND OPERATION\n    //caller (owner/anyone) to transfer land to buyer provided caller is owner of the land\n    function transferLand(address _landBuyer, uint _landID) public returns (bool)\n    {\n        //find out the particular land ID in owner's collection\n        for(uint i = 0; i < (__ownedLands[msg.sender].length); i++)    \n        {\n            //if given land ID is indeed in owner's collection\n            if (__ownedLands[msg.sender][i].landID == _landID)\n            {\n                //copy land in new owner's collection\n                Land memory myLand = Land(\n                    {\n                    ownerAddress:_landBuyer,\n                    location: __ownedLands[msg.sender][i].location,\n                    cost: __ownedLands[msg.sender][i].cost,\n                    landID: _landID\n                    });\n                __ownedLands[_landBuyer].push(myLand);   \n                \n                //remove land from current ownerAddress\n                // actually sets it to zero\n                delete __ownedLands[msg.sender][i];\n\n                \n                //inform the world\n                emit Transfer(msg.sender, _landBuyer, _landID);                \n                \n                return true;\n            }\n        }\n        \n        //if we still did not return, return false\n        return false;\n    }\n    \n    \n    //3. THIRD OPERATION\n    //get land details of an account\n    function getLand(address _landHolder, uint _index) public returns (string memory, uint, address, uint)\n    {\n        return (__ownedLands[_landHolder][_index].location, \n        __ownedLands[_landHolder][_index].cost,\n        __ownedLands[_landHolder][_index].ownerAddress,\n        __ownedLands[_landHolder][_index].landID);\n                \n    }\n    \n    //4. GET TOTAL NO OF LANDS OWNED BY AN ACCOUNT AS NO WAY TO RETURN STRUCT ARRAYS\n    function getNoOfLands(address _landHolder) public returns (uint)\n    {\n        return __ownedLands[_landHolder].length;\n    }\n\n\n}",
  "sourcePath": "/home/jaynil/Desktop/abc/contracts/MetaCoin.sol",
  "compiler": {
    "name": "solc",
    "version": "0.5.0+commit.1d4f565a.Emscripten.clang"
  },
  "schemaVersion": "3.0.1",
  "updatedAt": "2019-01-19T17:27:32.459Z",
  "devdoc": {
    "methods": {}
  },
  "userdoc": {
    "methods": {}
  }
}