{
  "contractName": "ERC1155",
  "abi": [
    {
      "constant": true,
      "inputs": [
        {
          "name": "",
          "type": "uint256"
        }
      ],
      "name": "metadataURIs",
      "outputs": [
        {
          "name": "",
          "type": "string"
        }
      ],
      "payable": false,
      "stateMutability": "view",
      "type": "function"
    },
    {
      "constant": true,
      "inputs": [
        {
          "name": "",
          "type": "uint256"
        }
      ],
      "name": "items",
      "outputs": [
        {
          "name": "name",
          "type": "string"
        },
        {
          "name": "totalSupply",
          "type": "uint256"
        }
      ],
      "payable": false,
      "stateMutability": "view",
      "type": "function"
    },
    {
      "constant": true,
      "inputs": [
        {
          "name": "",
          "type": "uint256"
        }
      ],
      "name": "symbols",
      "outputs": [
        {
          "name": "",
          "type": "string"
        }
      ],
      "payable": false,
      "stateMutability": "view",
      "type": "function"
    },
    {
      "constant": true,
      "inputs": [
        {
          "name": "",
          "type": "uint256"
        }
      ],
      "name": "_decimals",
      "outputs": [
        {
          "name": "",
          "type": "uint8"
        }
      ],
      "payable": false,
      "stateMutability": "view",
      "type": "function"
    },
    {
      "constant": true,
      "inputs": [
        {
          "name": "",
          "type": "uint256"
        },
        {
          "name": "",
          "type": "address"
        },
        {
          "name": "",
          "type": "address"
        }
      ],
      "name": "allowances",
      "outputs": [
        {
          "name": "",
          "type": "uint256"
        }
      ],
      "payable": false,
      "stateMutability": "view",
      "type": "function"
    },
    {
      "anonymous": false,
      "inputs": [
        {
          "indexed": true,
          "name": "_owner",
          "type": "address"
        },
        {
          "indexed": true,
          "name": "_spender",
          "type": "address"
        },
        {
          "indexed": true,
          "name": "_id",
          "type": "uint256"
        },
        {
          "indexed": false,
          "name": "_oldValue",
          "type": "uint256"
        },
        {
          "indexed": false,
          "name": "_value",
          "type": "uint256"
        }
      ],
      "name": "Approval",
      "type": "event"
    },
    {
      "anonymous": false,
      "inputs": [
        {
          "indexed": false,
          "name": "_spender",
          "type": "address"
        },
        {
          "indexed": true,
          "name": "_from",
          "type": "address"
        },
        {
          "indexed": true,
          "name": "_to",
          "type": "address"
        },
        {
          "indexed": true,
          "name": "_id",
          "type": "uint256"
        },
        {
          "indexed": false,
          "name": "_value",
          "type": "uint256"
        }
      ],
      "name": "Transfer",
      "type": "event"
    },
    {
      "constant": false,
      "inputs": [
        {
          "name": "_from",
          "type": "address"
        },
        {
          "name": "_to",
          "type": "address"
        },
        {
          "name": "_id",
          "type": "uint256"
        },
        {
          "name": "_value",
          "type": "uint256"
        }
      ],
      "name": "transferFrom",
      "outputs": [],
      "payable": false,
      "stateMutability": "nonpayable",
      "type": "function"
    },
    {
      "constant": false,
      "inputs": [
        {
          "name": "_from",
          "type": "address"
        },
        {
          "name": "_to",
          "type": "address"
        },
        {
          "name": "_id",
          "type": "uint256"
        },
        {
          "name": "_value",
          "type": "uint256"
        },
        {
          "name": "_data",
          "type": "bytes"
        }
      ],
      "name": "safeTransferFrom",
      "outputs": [],
      "payable": false,
      "stateMutability": "nonpayable",
      "type": "function"
    },
    {
      "constant": false,
      "inputs": [
        {
          "name": "_spender",
          "type": "address"
        },
        {
          "name": "_id",
          "type": "uint256"
        },
        {
          "name": "_currentValue",
          "type": "uint256"
        },
        {
          "name": "_value",
          "type": "uint256"
        }
      ],
      "name": "approve",
      "outputs": [],
      "payable": false,
      "stateMutability": "nonpayable",
      "type": "function"
    },
    {
      "constant": true,
      "inputs": [
        {
          "name": "_id",
          "type": "uint256"
        }
      ],
      "name": "balanceOf",
      "outputs": [
        {
          "name": "",
          "type": "uint256"
        }
      ],
      "payable": false,
      "stateMutability": "view",
      "type": "function"
    },
    {
      "constant": true,
      "inputs": [
        {
          "name": "_id",
          "type": "uint256"
        },
        {
          "name": "_owner",
          "type": "address"
        },
        {
          "name": "_spender",
          "type": "address"
        }
      ],
      "name": "allowance",
      "outputs": [
        {
          "name": "",
          "type": "uint256"
        }
      ],
      "payable": false,
      "stateMutability": "view",
      "type": "function"
    },
    {
      "constant": false,
      "inputs": [
        {
          "name": "_to",
          "type": "address"
        },
        {
          "name": "_id",
          "type": "uint256"
        },
        {
          "name": "_value",
          "type": "uint256"
        }
      ],
      "name": "transfer",
      "outputs": [],
      "payable": false,
      "stateMutability": "nonpayable",
      "type": "function"
    },
    {
      "constant": false,
      "inputs": [
        {
          "name": "_to",
          "type": "address"
        },
        {
          "name": "_id",
          "type": "uint256"
        },
        {
          "name": "_value",
          "type": "uint256"
        },
        {
          "name": "_data",
          "type": "bytes"
        }
      ],
      "name": "safeTransfer",
      "outputs": [],
      "payable": false,
      "stateMutability": "nonpayable",
      "type": "function"
    },
    {
      "constant": false,
      "inputs": [
        {
          "name": "_from",
          "type": "address"
        },
        {
          "name": "_to",
          "type": "address"
        },
        {
          "name": "_ids",
          "type": "uint256[]"
        },
        {
          "name": "_values",
          "type": "uint256[]"
        }
      ],
      "name": "batchTransferFrom",
      "outputs": [],
      "payable": false,
      "stateMutability": "nonpayable",
      "type": "function"
    },
    {
      "constant": false,
      "inputs": [
        {
          "name": "_from",
          "type": "address"
        },
        {
          "name": "_to",
          "type": "address"
        },
        {
          "name": "_ids",
          "type": "uint256[]"
        },
        {
          "name": "_values",
          "type": "uint256[]"
        },
        {
          "name": "_data",
          "type": "bytes"
        }
      ],
      "name": "safeBatchTransferFrom",
      "outputs": [],
      "payable": false,
      "stateMutability": "nonpayable",
      "type": "function"
    },
    {
      "constant": false,
      "inputs": [
        {
          "name": "_spender",
          "type": "address"
        },
        {
          "name": "_ids",
          "type": "uint256[]"
        },
        {
          "name": "_currentValues",
          "type": "uint256[]"
        },
        {
          "name": "_values",
          "type": "uint256[]"
        }
      ],
      "name": "batchApprove",
      "outputs": [],
      "payable": false,
      "stateMutability": "nonpayable",
      "type": "function"
    },
    {
      "constant": false,
      "inputs": [
        {
          "name": "_to",
          "type": "address"
        },
        {
          "name": "_ids",
          "type": "uint256[]"
        },
        {
          "name": "_values",
          "type": "uint256[]"
        }
      ],
      "name": "batchTransfer",
      "outputs": [],
      "payable": false,
      "stateMutability": "nonpayable",
      "type": "function"
    },
    {
      "constant": false,
      "inputs": [
        {
          "name": "_to",
          "type": "address"
        },
        {
          "name": "_ids",
          "type": "uint256[]"
        },
        {
          "name": "_values",
          "type": "uint256[]"
        },
        {
          "name": "_data",
          "type": "bytes"
        }
      ],
      "name": "safeBatchTransfer",
      "outputs": [],
      "payable": false,
      "stateMutability": "nonpayable",
      "type": "function"
    },
    {
      "constant": true,
      "inputs": [
        {
          "name": "_id",
          "type": "uint256"
        }
      ],
      "name": "name",
      "outputs": [
        {
          "name": "",
          "type": "string"
        }
      ],
      "payable": false,
      "stateMutability": "view",
      "type": "function"
    },
    {
      "constant": true,
      "inputs": [
        {
          "name": "_id",
          "type": "uint256"
        }
      ],
      "name": "symbol",
      "outputs": [
        {
          "name": "",
          "type": "string"
        }
      ],
      "payable": false,
      "stateMutability": "view",
      "type": "function"
    },
    {
      "constant": true,
      "inputs": [
        {
          "name": "_id",
          "type": "uint256"
        }
      ],
      "name": "decimals",
      "outputs": [
        {
          "name": "",
          "type": "uint8"
        }
      ],
      "payable": false,
      "stateMutability": "view",
      "type": "function"
    },
    {
      "constant": true,
      "inputs": [
        {
          "name": "_id",
          "type": "uint256"
        }
      ],
      "name": "totalSupply",
      "outputs": [
        {
          "name": "",
          "type": "uint256"
        }
      ],
      "payable": false,
      "stateMutability": "view",
      "type": "function"
    },
    {
      "constant": true,
      "inputs": [
        {
          "name": "_id",
          "type": "uint256"
        }
      ],
      "name": "uri",
      "outputs": [
        {
          "name": "",
          "type": "string"
        }
      ],
      "payable": false,
      "stateMutability": "view",
      "type": "function"
    },
    {
      "constant": true,
      "inputs": [
        {
          "name": "_id",
          "type": "uint256"
        }
      ],
      "name": "token",
      "outputs": [
        {
          "name": "",
          "type": "string"
        },
        {
          "name": "",
          "type": "string"
        },
        {
          "name": "",
          "type": "uint256"
        },
        {
          "name": "",
          "type": "string"
        }
      ],
      "payable": false,
      "stateMutability": "view",
      "type": "function"
    },
    {
      "constant": false,
      "inputs": [
        {
          "name": "_to",
          "type": "address[]"
        },
        {
          "name": "_ids",
          "type": "uint256[]"
        },
        {
          "name": "_values",
          "type": "uint256[]"
        }
      ],
      "name": "multicastTransfer",
      "outputs": [],
      "payable": false,
      "stateMutability": "nonpayable",
      "type": "function"
    },
    {
      "constant": false,
      "inputs": [
        {
          "name": "_to",
          "type": "address[]"
        },
        {
          "name": "_ids",
          "type": "uint256[]"
        },
        {
          "name": "_values",
          "type": "uint256[]"
        },
        {
          "name": "_data",
          "type": "bytes"
        }
      ],
      "name": "safeMulticastTransfer",
      "outputs": [],
      "payable": false,
      "stateMutability": "nonpayable",
      "type": "function"
    }
  ],
  "bytecode": "0x608060405234801561001057600080fd5b50613ce9806100206000396000f3fe608060405260043610610148576000357c0100000000000000000000000000000000000000000000000000000000900463ffffffff168062ad800c1461014d578063044215c614610201578063095bcdb6146103945780630d550b75146103f95780630e89341c1461048857806317fad7fc1461053c5780632eb2c2d614610657578063368b2842146107c75780633f47e662146109175780634e41a1fb1461096c5780634ed5c55814610a205780634f4df44214610ad457806367fd9da314610b435780639cc7f70814610c73578063ae28b68c14610cc2578063bd85b03914610d7c578063bfb231d214610dcb578063ccce413b14610e86578063d1bab4cc14610f3a578063d29c18f91461108a578063dbd3c372146110df578063e39c6d8014611264578063e70d6dc51461135f578063f242432a146113ee578063fe99049a146114c8575b600080fd5b34801561015957600080fd5b506101866004803603602081101561017057600080fd5b810190808035906020019092919050505061154d565b6040518080602001828103825283818151815260200191508051906020019080838360005b838110156101c65780820151818401526020810190506101ab565b50505050905090810190601f1680156101f35780820380516001836020036101000a031916815260200191505b509250505060405180910390f35b34801561020d57600080fd5b5061023a6004803603602081101561022457600080fd5b8101908080359060200190929190505050611605565b60405180806020018060200185815260200180602001848103845288818151815260200191508051906020019080838360005b8381101561028857808201518184015260208101905061026d565b50505050905090810190601f1680156102b55780820380516001836020036101000a031916815260200191505b50848103835287818151815260200191508051906020019080838360005b838110156102ee5780820151818401526020810190506102d3565b50505050905090810190601f16801561031b5780820380516001836020036101000a031916815260200191505b50848103825285818151815260200191508051906020019080838360005b83811015610354578082015181840152602081019050610339565b50505050905090810190601f1680156103815780820380516001836020036101000a031916815260200191505b5097505050505050505060405180910390f35b3480156103a057600080fd5b506103f7600480360360608110156103b757600080fd5b81019080803573ffffffffffffffffffffffffffffffffffffffff1690602001909291908035906020019092919080359060200190929190505050611842565b005b34801561040557600080fd5b506104726004803603606081101561041c57600080fd5b8101908080359060200190929190803573ffffffffffffffffffffffffffffffffffffffff169060200190929190803573ffffffffffffffffffffffffffffffffffffffff169060200190929190505050611a5b565b6040518082815260200191505060405180910390f35b34801561049457600080fd5b506104c1600480360360208110156104ab57600080fd5b8101908080359060200190929190505050611af4565b6040518080602001828103825283818151815260200191508051906020019080838360005b838110156105015780820151818401526020810190506104e6565b50505050905090810190601f16801561052e5780820380516001836020036101000a031916815260200191505b509250505060405180910390f35b34801561054857600080fd5b506106556004803603608081101561055f57600080fd5b81019080803573ffffffffffffffffffffffffffffffffffffffff169060200190929190803573ffffffffffffffffffffffffffffffffffffffff169060200190929190803590602001906401000000008111156105bc57600080fd5b8201836020820111156105ce57600080fd5b803590602001918460208302840111640100000000831117156105f057600080fd5b90919293919293908035906020019064010000000081111561061157600080fd5b82018360208201111561062357600080fd5b8035906020019184602083028401116401000000008311171561064557600080fd5b9091929391929390505050611ba9565b005b34801561066357600080fd5b506107c5600480360360a081101561067a57600080fd5b81019080803573ffffffffffffffffffffffffffffffffffffffff169060200190929190803573ffffffffffffffffffffffffffffffffffffffff169060200190929190803590602001906401000000008111156106d757600080fd5b8201836020820111156106e957600080fd5b8035906020019184602083028401116401000000008311171561070b57600080fd5b90919293919293908035906020019064010000000081111561072c57600080fd5b82018360208201111561073e57600080fd5b8035906020019184602083028401116401000000008311171561076057600080fd5b90919293919293908035906020019064010000000081111561078157600080fd5b82018360208201111561079357600080fd5b803590602001918460018302840111640100000000831117156107b557600080fd5b90919293919293905050506121df565b005b3480156107d357600080fd5b50610915600480360360808110156107ea57600080fd5b81019080803573ffffffffffffffffffffffffffffffffffffffff1690602001909291908035906020019064010000000081111561082757600080fd5b82018360208201111561083957600080fd5b8035906020019184602083028401116401000000008311171561085b57600080fd5b90919293919293908035906020019064010000000081111561087c57600080fd5b82018360208201111561088e57600080fd5b803590602001918460208302840111640100000000831117156108b057600080fd5b9091929391929390803590602001906401000000008111156108d157600080fd5b8201836020820111156108e357600080fd5b8035906020019184600183028401116401000000008311171561090557600080fd5b90919293919293905050506123df565b005b34801561092357600080fd5b506109506004803603602081101561093a57600080fd5b81019080803590602001909291905050506125aa565b604051808260ff1660ff16815260200191505060405180910390f35b34801561097857600080fd5b506109a56004803603602081101561098f57600080fd5b81019080803590602001909291905050506125d3565b6040518080602001828103825283818151815260200191508051906020019080838360005b838110156109e55780820151818401526020810190506109ca565b50505050905090810190601f168015610a125780820380516001836020036101000a031916815260200191505b509250505060405180910390f35b348015610a2c57600080fd5b50610a5960048036036020811015610a4357600080fd5b8101908080359060200190929190505050612688565b6040518080602001828103825283818151815260200191508051906020019080838360005b83811015610a99578082015181840152602081019050610a7e565b50505050905090810190601f168015610ac65780820380516001836020036101000a031916815260200191505b509250505060405180910390f35b348015610ae057600080fd5b50610b4160048036036080811015610af757600080fd5b81019080803573ffffffffffffffffffffffffffffffffffffffff169060200190929190803590602001909291908035906020019092919080359060200190929190505050612738565b005b348015610b4f57600080fd5b50610c7160048036036060811015610b6657600080fd5b8101908080359060200190640100000000811115610b8357600080fd5b820183602082011115610b9557600080fd5b80359060200191846020830284011164010000000083111715610bb757600080fd5b909192939192939080359060200190640100000000811115610bd857600080fd5b820183602082011115610bea57600080fd5b80359060200191846020830284011164010000000083111715610c0c57600080fd5b909192939192939080359060200190640100000000811115610c2d57600080fd5b820183602082011115610c3f57600080fd5b80359060200191846020830284011164010000000083111715610c6157600080fd5b90919293919293905050506128e4565b005b348015610c7f57600080fd5b50610cac60048036036020811015610c9657600080fd5b8101908080359060200190929190505050612b81565b6040518082815260200191505060405180910390f35b348015610cce57600080fd5b50610d7a60048036036080811015610ce557600080fd5b81019080803573ffffffffffffffffffffffffffffffffffffffff169060200190929190803590602001909291908035906020019092919080359060200190640100000000811115610d3657600080fd5b820183602082011115610d4857600080fd5b80359060200191846001830284011164010000000083111715610d6a57600080fd5b9091929391929390505050612bde565b005b348015610d8857600080fd5b50610db560048036036020811015610d9f57600080fd5b8101908080359060200190929190505050612d04565b6040518082815260200191505060405180910390f35b348015610dd757600080fd5b50610e0460048036036020811015610dee57600080fd5b8101908080359060200190929190505050612d24565b6040518080602001838152602001828103825284818151815260200191508051906020019080838360005b83811015610e4a578082015181840152602081019050610e2f565b50505050905090810190601f168015610e775780820380516001836020036101000a031916815260200191505b50935050505060405180910390f35b348015610e9257600080fd5b50610ebf60048036036020811015610ea957600080fd5b8101908080359060200190929190505050612de0565b6040518080602001828103825283818151815260200191508051906020019080838360005b83811015610eff578082015181840152602081019050610ee4565b50505050905090810190601f168015610f2c5780820380516001836020036101000a031916815260200191505b509250505060405180910390f35b348015610f4657600080fd5b5061108860048036036080811015610f5d57600080fd5b81019080803573ffffffffffffffffffffffffffffffffffffffff16906020019092919080359060200190640100000000811115610f9a57600080fd5b820183602082011115610fac57600080fd5b80359060200191846020830284011164010000000083111715610fce57600080fd5b909192939192939080359060200190640100000000811115610fef57600080fd5b82018360208201111561100157600080fd5b8035906020019184602083028401116401000000008311171561102357600080fd5b90919293919293908035906020019064010000000081111561104457600080fd5b82018360208201111561105657600080fd5b8035906020019184602083028401116401000000008311171561107857600080fd5b9091929391929390505050612e90565b005b34801561109657600080fd5b506110c3600480360360208110156110ad57600080fd5b81019080803590602001909291905050506130b7565b604051808260ff1660ff16815260200191505060405180910390f35b3480156110eb57600080fd5b506112626004803603608081101561110257600080fd5b810190808035906020019064010000000081111561111f57600080fd5b82018360208201111561113157600080fd5b8035906020019184602083028401116401000000008311171561115357600080fd5b90919293919293908035906020019064010000000081111561117457600080fd5b82018360208201111561118657600080fd5b803590602001918460208302840111640100000000831117156111a857600080fd5b9091929391929390803590602001906401000000008111156111c957600080fd5b8201836020820111156111db57600080fd5b803590602001918460208302840111640100000000831117156111fd57600080fd5b90919293919293908035906020019064010000000081111561121e57600080fd5b82018360208201111561123057600080fd5b8035906020019184600183028401116401000000008311171561125257600080fd5b90919293919293905050506130d7565b005b34801561127057600080fd5b5061135d6004803603606081101561128757600080fd5b81019080803573ffffffffffffffffffffffffffffffffffffffff169060200190929190803590602001906401000000008111156112c457600080fd5b8201836020820111156112d657600080fd5b803590602001918460208302840111640100000000831117156112f857600080fd5b90919293919293908035906020019064010000000081111561131957600080fd5b82018360208201111561132b57600080fd5b8035906020019184602083028401116401000000008311171561134d57600080fd5b90919293919293905050506132d0565b005b34801561136b57600080fd5b506113d86004803603606081101561138257600080fd5b8101908080359060200190929190803573ffffffffffffffffffffffffffffffffffffffff169060200190929190803573ffffffffffffffffffffffffffffffffffffffff16906020019092919050505061353b565b6040518082815260200191505060405180910390f35b3480156113fa57600080fd5b506114c6600480360360a081101561141157600080fd5b81019080803573ffffffffffffffffffffffffffffffffffffffff169060200190929190803573ffffffffffffffffffffffffffffffffffffffff16906020019092919080359060200190929190803590602001909291908035906020019064010000000081111561148257600080fd5b82018360208201111561149457600080fd5b803590602001918460018302840111640100000000831117156114b657600080fd5b909192939192939050505061356d565b005b3480156114d457600080fd5b5061154b600480360360808110156114eb57600080fd5b81019080803573ffffffffffffffffffffffffffffffffffffffff169060200190929190803573ffffffffffffffffffffffffffffffffffffffff16906020019092919080359060200190929190803590602001909291905050506136c8565b005b6060600360008381526020019081526020016000206000018054600181600116156101000203166002900480601f0160208091040260200160405190810160405280929190818152602001828054600181600116156101000203166002900480156115f95780601f106115ce576101008083540402835291602001916115f9565b820191906000526020600020905b8154815290600101906020018083116115dc57829003601f168201915b50505050509050919050565b606080600060606003600086815260200190815260200160002060000160016000878152602001908152602001600020600360008881526020019081526020016000206001015460046000898152602001908152602001600020838054600181600116156101000203166002900480601f0160208091040260200160405190810160405280929190818152602001828054600181600116156101000203166002900480156116f45780601f106116c9576101008083540402835291602001916116f4565b820191906000526020600020905b8154815290600101906020018083116116d757829003601f168201915b50505050509350828054600181600116156101000203166002900480601f0160208091040260200160405190810160405280929190818152602001828054600181600116156101000203166002900480156117905780601f1061176557610100808354040283529160200191611790565b820191906000526020600020905b81548152906001019060200180831161177357829003601f168201915b50505050509250808054600181600116156101000203166002900480601f01602080910402602001604051908101604052809291908181526020018280546001816001161561010002031660029004801561182c5780601f106118015761010080835404028352916020019161182c565b820191906000526020600020905b81548152906001019060200180831161180f57829003601f168201915b5050505050905093509350935093509193509193565b6118a8816003600085815260200190815260200160002060020160003373ffffffffffffffffffffffffffffffffffffffff1673ffffffffffffffffffffffffffffffffffffffff16815260200190815260200160002054613a4990919063ffffffff16565b6003600084815260200190815260200160002060020160003373ffffffffffffffffffffffffffffffffffffffff1673ffffffffffffffffffffffffffffffffffffffff168152602001908152602001600020819055506119656003600084815260200190815260200160002060020160008573ffffffffffffffffffffffffffffffffffffffff1673ffffffffffffffffffffffffffffffffffffffff1681526020019081526020016000205482613a6290919063ffffffff16565b6003600084815260200190815260200160002060020160008573ffffffffffffffffffffffffffffffffffffffff1673ffffffffffffffffffffffffffffffffffffffff16815260200190815260200160002081905550818373ffffffffffffffffffffffffffffffffffffffff163373ffffffffffffffffffffffffffffffffffffffff167f1b3d7edb2e9c0b0e7c525b20aaaef0f5940d2ed71663c7d39266ecafac7288593385604051808373ffffffffffffffffffffffffffffffffffffffff1673ffffffffffffffffffffffffffffffffffffffff1681526020018281526020019250505060405180910390a4505050565b60006002600085815260200190815260200160002060008473ffffffffffffffffffffffffffffffffffffffff1673ffffffffffffffffffffffffffffffffffffffff16815260200190815260200160002060008373ffffffffffffffffffffffffffffffffffffffff1673ffffffffffffffffffffffffffffffffffffffff1681526020019081526020016000205490509392505050565b6060600460008381526020019081526020016000208054600181600116156101000203166002900480601f016020809104026020016040519081016040528092919081815260200182805460018160011615610100020316600290048015611b9d5780601f10611b7257610100808354040283529160200191611b9d565b820191906000526020600020905b815481529060010190602001808311611b8057829003601f168201915b50505050509050919050565b6000803373ffffffffffffffffffffffffffffffffffffffff168873ffffffffffffffffffffffffffffffffffffffff161415611e445760008090505b86869050811015611e3e578686828181101515611bff57fe5b9050602002013592508484828181101515611c1657fe5b905060200201359150611c85826003600086815260200190815260200160002060020160008c73ffffffffffffffffffffffffffffffffffffffff1673ffffffffffffffffffffffffffffffffffffffff16815260200190815260200160002054613a4990919063ffffffff16565b6003600085815260200190815260200160002060020160008b73ffffffffffffffffffffffffffffffffffffffff1673ffffffffffffffffffffffffffffffffffffffff16815260200190815260200160002081905550611d426003600085815260200190815260200160002060020160008a73ffffffffffffffffffffffffffffffffffffffff1673ffffffffffffffffffffffffffffffffffffffff1681526020019081526020016000205483613a6290919063ffffffff16565b6003600085815260200190815260200160002060020160008a73ffffffffffffffffffffffffffffffffffffffff1673ffffffffffffffffffffffffffffffffffffffff16815260200190815260200160002081905550828873ffffffffffffffffffffffffffffffffffffffff168a73ffffffffffffffffffffffffffffffffffffffff167f1b3d7edb2e9c0b0e7c525b20aaaef0f5940d2ed71663c7d39266ecafac7288593386604051808373ffffffffffffffffffffffffffffffffffffffff1673ffffffffffffffffffffffffffffffffffffffff1681526020018281526020019250505060405180910390a4806001019050611be6565b506121d5565b60008090505b868690508110156121d3578686828181101515611e6357fe5b9050602002013592508484828181101515611e7a57fe5b905060200201359150611f23826002600086815260200190815260200160002060008c73ffffffffffffffffffffffffffffffffffffffff1673ffffffffffffffffffffffffffffffffffffffff16815260200190815260200160002060003373ffffffffffffffffffffffffffffffffffffffff1673ffffffffffffffffffffffffffffffffffffffff16815260200190815260200160002054613a4990919063ffffffff16565b6002600085815260200190815260200160002060008b73ffffffffffffffffffffffffffffffffffffffff1673ffffffffffffffffffffffffffffffffffffffff16815260200190815260200160002060003373ffffffffffffffffffffffffffffffffffffffff1673ffffffffffffffffffffffffffffffffffffffff1681526020019081526020016000208190555061201a826003600086815260200190815260200160002060020160008c73ffffffffffffffffffffffffffffffffffffffff1673ffffffffffffffffffffffffffffffffffffffff16815260200190815260200160002054613a4990919063ffffffff16565b6003600085815260200190815260200160002060020160008b73ffffffffffffffffffffffffffffffffffffffff1673ffffffffffffffffffffffffffffffffffffffff168152602001908152602001600020819055506120d76003600085815260200190815260200160002060020160008a73ffffffffffffffffffffffffffffffffffffffff1673ffffffffffffffffffffffffffffffffffffffff1681526020019081526020016000205483613a6290919063ffffffff16565b6003600085815260200190815260200160002060020160008a73ffffffffffffffffffffffffffffffffffffffff1673ffffffffffffffffffffffffffffffffffffffff16815260200190815260200160002081905550828873ffffffffffffffffffffffffffffffffffffffff168a73ffffffffffffffffffffffffffffffffffffffff167f1b3d7edb2e9c0b0e7c525b20aaaef0f5940d2ed71663c7d39266ecafac7288593386604051808373ffffffffffffffffffffffffffffffffffffffff1673ffffffffffffffffffffffffffffffffffffffff1681526020018281526020019250505060405180910390a4806001019050611e4a565b505b5050505050505050565b3073ffffffffffffffffffffffffffffffffffffffff166317fad7fc8989898989896040518763ffffffff167c0100000000000000000000000000000000000000000000000000000000028152600401808773ffffffffffffffffffffffffffffffffffffffff1673ffffffffffffffffffffffffffffffffffffffff1681526020018673ffffffffffffffffffffffffffffffffffffffff1673ffffffffffffffffffffffffffffffffffffffff16815260200180602001806020018381038352878782818152602001925060200280828437600081840152601f19601f8201169050808301925050508381038252858582818152602001925060200280828437600081840152601f19601f82011690508083019250505098505050505050505050600060405180830381600087803b15801561231c57600080fd5b505af1158015612330573d6000803e3d6000fd5b5050505060008090505b868690508110156123d4576123be8989898985818110151561235857fe5b90506020020135888886818110151561236d57fe5b9050602002013587878080601f016020809104026020016040519081016040528093929190818152602001838380828437600081840152601f19601f82011690508083019250505050505050613a7e565b15156123c957600080fd5b80600101905061233a565b505050505050505050565b3073ffffffffffffffffffffffffffffffffffffffff1663e39c6d8088888888886040518663ffffffff167c0100000000000000000000000000000000000000000000000000000000028152600401808673ffffffffffffffffffffffffffffffffffffffff1673ffffffffffffffffffffffffffffffffffffffff16815260200180602001806020018381038352878782818152602001925060200280828437600081840152601f19601f8201169050808301925050508381038252858582818152602001925060200280828437600081840152601f19601f820116905080830192505050975050505050505050600060405180830381600087803b1580156124e857600080fd5b505af11580156124fc573d6000803e3d6000fd5b5050505060008090505b868690508110156125a05761258a3389898985818110151561252457fe5b90506020020135888886818110151561253957fe5b9050602002013587878080601f016020809104026020016040519081016040528093929190818152602001838380828437600081840152601f19601f82011690508083019250505050505050613a7e565b151561259557600080fd5b806001019050612506565b5050505050505050565b600080600083815260200190815260200160002060009054906101000a900460ff169050919050565b6060600160008381526020019081526020016000208054600181600116156101000203166002900480601f01602080910402602001604051908101604052809291908181526020018280546001816001161561010002031660029004801561267c5780601f106126515761010080835404028352916020019161267c565b820191906000526020600020905b81548152906001019060200180831161265f57829003601f168201915b50505050509050919050565b60046020528060005260406000206000915090508054600181600116156101000203166002900480601f0160208091040260200160405190810160405280929190818152602001828054600181600116156101000203166002900480156127305780601f1061270557610100808354040283529160200191612730565b820191906000526020600020905b81548152906001019060200180831161271357829003601f168201915b505050505081565b60008114806127d35750816002600085815260200190815260200160002060003373ffffffffffffffffffffffffffffffffffffffff1673ffffffffffffffffffffffffffffffffffffffff16815260200190815260200160002060008673ffffffffffffffffffffffffffffffffffffffff1673ffffffffffffffffffffffffffffffffffffffff16815260200190815260200160002054145b15156127de57600080fd5b806002600085815260200190815260200160002060003373ffffffffffffffffffffffffffffffffffffffff1673ffffffffffffffffffffffffffffffffffffffff16815260200190815260200160002060008673ffffffffffffffffffffffffffffffffffffffff1673ffffffffffffffffffffffffffffffffffffffff16815260200190815260200160002081905550828473ffffffffffffffffffffffffffffffffffffffff163373ffffffffffffffffffffffffffffffffffffffff167f3a9c85c6b31f7a9d7fe1478f53e1be42e85db97ca30d1789cfef9196dbc472c98585604051808381526020018281526020019250505060405180910390a450505050565b60008090505b86869050811015612b78576000858583818110151561290557fe5b9050602002013590506000848484818110151561291e57fe5b9050602002013590506000898985818110151561293757fe5b9050602002013573ffffffffffffffffffffffffffffffffffffffff1690506129bc826003600086815260200190815260200160002060020160003373ffffffffffffffffffffffffffffffffffffffff1673ffffffffffffffffffffffffffffffffffffffff16815260200190815260200160002054613a4990919063ffffffff16565b6003600085815260200190815260200160002060020160003373ffffffffffffffffffffffffffffffffffffffff1673ffffffffffffffffffffffffffffffffffffffff16815260200190815260200160002081905550612a796003600085815260200190815260200160002060020160008373ffffffffffffffffffffffffffffffffffffffff1673ffffffffffffffffffffffffffffffffffffffff1681526020019081526020016000205483613a6290919063ffffffff16565b6003600085815260200190815260200160002060020160008373ffffffffffffffffffffffffffffffffffffffff1673ffffffffffffffffffffffffffffffffffffffff16815260200190815260200160002081905550828173ffffffffffffffffffffffffffffffffffffffff163373ffffffffffffffffffffffffffffffffffffffff167f1b3d7edb2e9c0b0e7c525b20aaaef0f5940d2ed71663c7d39266ecafac7288593386604051808373ffffffffffffffffffffffffffffffffffffffff1673ffffffffffffffffffffffffffffffffffffffff1681526020018281526020019250505060405180910390a45050508060010190506128ea565b50505050505050565b60006003600083815260200190815260200160002060020160003373ffffffffffffffffffffffffffffffffffffffff1673ffffffffffffffffffffffffffffffffffffffff168152602001908152602001600020549050919050565b3073ffffffffffffffffffffffffffffffffffffffff1663095bcdb68686866040518463ffffffff167c0100000000000000000000000000000000000000000000000000000000028152600401808473ffffffffffffffffffffffffffffffffffffffff1673ffffffffffffffffffffffffffffffffffffffff1681526020018381526020018281526020019350505050600060405180830381600087803b158015612c8957600080fd5b505af1158015612c9d573d6000803e3d6000fd5b50505050612cf23386868686868080601f016020809104026020016040519081016040528093929190818152602001838380828437600081840152601f19601f82011690508083019250505050505050613a7e565b1515612cfd57600080fd5b5050505050565b600060036000838152602001908152602001600020600101549050919050565b6003602052806000526040600020600091509050806000018054600181600116156101000203166002900480601f016020809104026020016040519081016040528092919081815260200182805460018160011615610100020316600290048015612dd05780601f10612da557610100808354040283529160200191612dd0565b820191906000526020600020905b815481529060010190602001808311612db357829003601f168201915b5050505050908060010154905082565b60016020528060005260406000206000915090508054600181600116156101000203166002900480601f016020809104026020016040519081016040528092919081815260200182805460018160011615610100020316600290048015612e885780601f10612e5d57610100808354040283529160200191612e88565b820191906000526020600020905b815481529060010190602001808311612e6b57829003601f168201915b505050505081565b60008060008090505b888890508110156130ab578888828181101515612eb257fe5b9050602002013592508484828181101515612ec957fe5b9050602002013591506000821480612f8157508686828181101515612eea57fe5b905060200201356002600085815260200190815260200160002060003373ffffffffffffffffffffffffffffffffffffffff1673ffffffffffffffffffffffffffffffffffffffff16815260200190815260200160002060008c73ffffffffffffffffffffffffffffffffffffffff1673ffffffffffffffffffffffffffffffffffffffff16815260200190815260200160002054145b1515612f8c57600080fd5b816002600085815260200190815260200160002060003373ffffffffffffffffffffffffffffffffffffffff1673ffffffffffffffffffffffffffffffffffffffff16815260200190815260200160002060008c73ffffffffffffffffffffffffffffffffffffffff1673ffffffffffffffffffffffffffffffffffffffff16815260200190815260200160002081905550828a73ffffffffffffffffffffffffffffffffffffffff163373ffffffffffffffffffffffffffffffffffffffff167f3a9c85c6b31f7a9d7fe1478f53e1be42e85db97ca30d1789cfef9196dbc472c98a8a86818110151561307c57fe5b9050602002013586604051808381526020018281526020019250505060405180910390a4806001019050612e99565b50505050505050505050565b60006020528060005260406000206000915054906101000a900460ff1681565b3073ffffffffffffffffffffffffffffffffffffffff166367fd9da38989898989896040518763ffffffff167c01000000000000000000000000000000000000000000000000000000000281526004018080602001806020018060200184810384528a8a82818152602001925060200280828437600081840152601f19601f8201169050808301925050508481038352888882818152602001925060200280828437600081840152601f19601f8201169050808301925050508481038252868682818152602001925060200280828437600081840152601f19601f8201169050808301925050509950505050505050505050600060405180830381600087803b1580156131e357600080fd5b505af11580156131f7573d6000803e3d6000fd5b5050505060008090505b868690508110156132c5576132af338a8a84818110151561321e57fe5b9050602002013573ffffffffffffffffffffffffffffffffffffffff16898985818110151561324957fe5b90506020020135888886818110151561325e57fe5b9050602002013587878080601f016020809104026020016040519081016040528093929190818152602001838380828437600081840152601f19601f82011690508083019250505050505050613a7e565b15156132ba57600080fd5b806001019050613201565b505050505050505050565b60008060008090505b868690508110156135315786868281811015156132f257fe5b905060200201359250848482818110151561330957fe5b905060200201359150613378826003600086815260200190815260200160002060020160003373ffffffffffffffffffffffffffffffffffffffff1673ffffffffffffffffffffffffffffffffffffffff16815260200190815260200160002054613a4990919063ffffffff16565b6003600085815260200190815260200160002060020160003373ffffffffffffffffffffffffffffffffffffffff1673ffffffffffffffffffffffffffffffffffffffff168152602001908152602001600020819055506134356003600085815260200190815260200160002060020160008a73ffffffffffffffffffffffffffffffffffffffff1673ffffffffffffffffffffffffffffffffffffffff1681526020019081526020016000205483613a6290919063ffffffff16565b6003600085815260200190815260200160002060020160008a73ffffffffffffffffffffffffffffffffffffffff1673ffffffffffffffffffffffffffffffffffffffff16815260200190815260200160002081905550828873ffffffffffffffffffffffffffffffffffffffff163373ffffffffffffffffffffffffffffffffffffffff167f1b3d7edb2e9c0b0e7c525b20aaaef0f5940d2ed71663c7d39266ecafac7288593386604051808373ffffffffffffffffffffffffffffffffffffffff1673ffffffffffffffffffffffffffffffffffffffff1681526020018281526020019250505060405180910390a48060010190506132d9565b5050505050505050565b600260205282600052604060002060205281600052604060002060205280600052604060002060009250925050505481565b3073ffffffffffffffffffffffffffffffffffffffff1663fe99049a878787876040518563ffffffff167c0100000000000000000000000000000000000000000000000000000000028152600401808573ffffffffffffffffffffffffffffffffffffffff1673ffffffffffffffffffffffffffffffffffffffff1681526020018473ffffffffffffffffffffffffffffffffffffffff1673ffffffffffffffffffffffffffffffffffffffff168152602001838152602001828152602001945050505050600060405180830381600087803b15801561364c57600080fd5b505af1158015613660573d6000803e3d6000fd5b505050506136b58686868686868080601f016020809104026020016040519081016040528093929190818152602001838380828437600081840152601f19601f82011690508083019250505050505050613a7e565b15156136c057600080fd5b505050505050565b3373ffffffffffffffffffffffffffffffffffffffff168473ffffffffffffffffffffffffffffffffffffffff1614151561382f5761379d816002600085815260200190815260200160002060008773ffffffffffffffffffffffffffffffffffffffff1673ffffffffffffffffffffffffffffffffffffffff16815260200190815260200160002060003373ffffffffffffffffffffffffffffffffffffffff1673ffffffffffffffffffffffffffffffffffffffff16815260200190815260200160002054613a4990919063ffffffff16565b6002600084815260200190815260200160002060008673ffffffffffffffffffffffffffffffffffffffff1673ffffffffffffffffffffffffffffffffffffffff16815260200190815260200160002060003373ffffffffffffffffffffffffffffffffffffffff1673ffffffffffffffffffffffffffffffffffffffff168152602001908152602001600020819055505b613895816003600085815260200190815260200160002060020160008773ffffffffffffffffffffffffffffffffffffffff1673ffffffffffffffffffffffffffffffffffffffff16815260200190815260200160002054613a4990919063ffffffff16565b6003600084815260200190815260200160002060020160008673ffffffffffffffffffffffffffffffffffffffff1673ffffffffffffffffffffffffffffffffffffffff168152602001908152602001600020819055506139526003600084815260200190815260200160002060020160008573ffffffffffffffffffffffffffffffffffffffff1673ffffffffffffffffffffffffffffffffffffffff1681526020019081526020016000205482613a6290919063ffffffff16565b6003600084815260200190815260200160002060020160008573ffffffffffffffffffffffffffffffffffffffff1673ffffffffffffffffffffffffffffffffffffffff16815260200190815260200160002081905550818373ffffffffffffffffffffffffffffffffffffffff168573ffffffffffffffffffffffffffffffffffffffff167f1b3d7edb2e9c0b0e7c525b20aaaef0f5940d2ed71663c7d39266ecafac7288593385604051808373ffffffffffffffffffffffffffffffffffffffff1673ffffffffffffffffffffffffffffffffffffffff1681526020018281526020019250505060405180910390a450505050565b6000828211151515613a5757fe5b818303905092915050565b60008183019050828110151515613a7557fe5b80905092915050565b6000613a9f8573ffffffffffffffffffffffffffffffffffffffff16613caa565b1515613aae5760019050613ca1565b60008573ffffffffffffffffffffffffffffffffffffffff1663f23a6e6133898888886040518663ffffffff167c0100000000000000000000000000000000000000000000000000000000028152600401808673ffffffffffffffffffffffffffffffffffffffff1673ffffffffffffffffffffffffffffffffffffffff1681526020018573ffffffffffffffffffffffffffffffffffffffff1673ffffffffffffffffffffffffffffffffffffffff16815260200184815260200183815260200180602001828103825283818151815260200191508051906020019080838360005b83811015613bac578082015181840152602081019050613b91565b50505050905090810190601f168015613bd95780820380516001836020036101000a031916815260200191505b509650505050505050602060405180830381600087803b158015613bfc57600080fd5b505af1158015613c10573d6000803e3d6000fd5b505050506040513d6020811015613c2657600080fd5b8101908080519060200190929190505050905063f23a6e617c0100000000000000000000000000000000000000000000000000000000027bffffffffffffffffffffffffffffffffffffffffffffffffffffffff1916817bffffffffffffffffffffffffffffffffffffffffffffffffffffffff1916149150505b95945050505050565b600080823b90506000811191505091905056fea165627a7a72305820e9019fc6aeeee276496e06e0d8dbf3b36e1b64215664c8512fdb0678b7ec20460029",
  "source": "pragma solidity ^0.5.0;\n\nimport \"./SafeMath.sol\";\nimport \"./Address.sol\";\nimport \"./IERC1155.sol\";\n\ncontract ERC1155 is IERC1155, IERC1155Extended, IERC1155BatchTransfer, IERC1155BatchTransferExtended {\n    using SafeMath for uint256;\n    using Address for address;\n\n    // Variables\n    struct Items {\n        string name;\n        uint256 totalSupply;\n        mapping (address => uint256) balances;\n    }\n    mapping (uint256 => uint8) public _decimals;\n    mapping (uint256 => string) public symbols;\n    mapping (uint256 => mapping(address => mapping(address => uint256))) public allowances;\n    mapping (uint256 => Items) public items;\n    mapping (uint256 => string) public metadataURIs;\n\n    bytes4 constant private ERC1155_RECEIVED = 0xf23a6e61;\n\n/////////////////////////////////////////// IERC1155 //////////////////////////////////////////////\n\n    // Events\n    event Approval(address indexed _owner, address indexed _spender, uint256 indexed _id, uint256 _oldValue, uint256 _value);\n    event Transfer(address _spender, address indexed _from, address indexed _to, uint256 indexed _id, uint256 _value);\n\n    function transferFrom(address _from, address _to, uint256 _id, uint256 _value) external {\n        if(_from != msg.sender) {\n            //require(allowances[_id][_from][msg.sender] >= _value);\n            allowances[_id][_from][msg.sender] = allowances[_id][_from][msg.sender].sub(_value);\n        }\n\n        items[_id].balances[_from] = items[_id].balances[_from].sub(_value);\n        items[_id].balances[_to] = _value.add(items[_id].balances[_to]);\n\n        emit Transfer(msg.sender, _from, _to, _id, _value);\n    }\n\n    function safeTransferFrom(address _from, address _to, uint256 _id, uint256 _value, bytes calldata _data) external {\n        this.transferFrom(_from, _to, _id, _value);\n\n        // solium-disable-next-line arg-overflow\n        require(_checkAndCallSafeTransfer(_from, _to, _id, _value, _data));\n    }\n\n    function approve(address _spender, uint256 _id, uint256 _currentValue, uint256 _value) external {\n        // if the allowance isn't 0, it can only be updated to 0 to prevent an allowance change immediately after withdrawal\n        require(_value == 0 || allowances[_id][msg.sender][_spender] == _currentValue);\n        allowances[_id][msg.sender][_spender] = _value;\n        emit Approval(msg.sender, _spender, _id, _currentValue, _value);\n    }\n\n    function balanceOf(uint256 _id) external view returns (uint256) {\n        return items[_id].balances[msg.sender];\n    }\n\n    function allowance(uint256 _id, address _owner, address _spender) external view returns (uint256) {\n        return allowances[_id][_owner][_spender];\n    }\n\n\n/////////////////////////////////////// IERC1155Extended //////////////////////////////////////////\n\n    function transfer(address _to, uint256 _id, uint256 _value) external {\n        // Not needed. SafeMath will do the same check on .sub(_value)\n        //require(_value <= items[_id].balances[msg.sender]);\n        items[_id].balances[msg.sender] = items[_id].balances[msg.sender].sub(_value);\n        items[_id].balances[_to] = _value.add(items[_id].balances[_to]);\n        emit Transfer(msg.sender, msg.sender, _to, _id, _value);\n    }\n\n    function safeTransfer(address _to, uint256 _id, uint256 _value, bytes calldata _data) external {\n        this.transfer(_to, _id, _value);\n\n        // solium-disable-next-line arg-overflow\n        require(_checkAndCallSafeTransfer(msg.sender, _to, _id, _value, _data));\n    }\n\n//////////////////////////////////// IERC1155BatchTransfer ////////////////////////////////////////\n\n    function batchTransferFrom(address _from, address _to, uint256[] calldata _ids, uint256[] calldata _values) external {\n        uint256 _id;\n        uint256 _value;\n\n        if(_from == msg.sender) {\n            for (uint256 i = 0; i < _ids.length; ++i) {\n                _id = _ids[i];\n                _value = _values[i];\n\n                items[_id].balances[_from] = items[_id].balances[_from].sub(_value);\n                items[_id].balances[_to] = _value.add(items[_id].balances[_to]);\n\n                emit Transfer(msg.sender, _from, _to, _id, _value);\n            }\n        }\n        else {\n            for (uint256 i = 0; i < _ids.length; ++i) {\n                _id = _ids[i];\n                _value = _values[i];\n\n                allowances[_id][_from][msg.sender] = allowances[_id][_from][msg.sender].sub(_value);\n\n                items[_id].balances[_from] = items[_id].balances[_from].sub(_value);\n                items[_id].balances[_to] = _value.add(items[_id].balances[_to]);\n\n                emit Transfer(msg.sender, _from, _to, _id, _value);\n            }\n        }\n    }\n\n    function safeBatchTransferFrom(address _from, address _to, uint256[] calldata _ids, uint256[] calldata _values, bytes calldata _data) external {\n        this.batchTransferFrom(_from, _to, _ids, _values);\n\n        for (uint256 i = 0; i < _ids.length; ++i) {\n            // solium-disable-next-line arg-overflow\n            require(_checkAndCallSafeTransfer(_from, _to, _ids[i], _values[i], _data));\n        }\n    }\n\n    function batchApprove(address _spender, uint256[] calldata _ids,  uint256[] calldata _currentValues, uint256[] calldata _values) external {\n        uint256 _id;\n        uint256 _value;\n\n        for (uint256 i = 0; i < _ids.length; ++i) {\n            _id = _ids[i];\n            _value = _values[i];\n\n            require(_value == 0 || allowances[_id][msg.sender][_spender] == _currentValues[i]);\n            allowances[_id][msg.sender][_spender] = _value;\n            emit Approval(msg.sender, _spender, _id, _currentValues[i], _value);\n        }\n    }\n\n//////////////////////////////// IERC1155BatchTransferExtended ////////////////////////////////////\n\n    function batchTransfer(address _to, uint256[] calldata _ids, uint256[] calldata _values) external {\n        uint256 _id;\n        uint256 _value;\n\n        for (uint256 i = 0; i < _ids.length; ++i) {\n            _id = _ids[i];\n            _value = _values[i];\n\n            items[_id].balances[msg.sender] = items[_id].balances[msg.sender].sub(_value);\n            items[_id].balances[_to] = _value.add(items[_id].balances[_to]);\n\n            emit Transfer(msg.sender, msg.sender, _to, _id, _value);\n        }\n    }\n\n    function safeBatchTransfer(address _to, uint256[] calldata _ids, uint256[] calldata _values, bytes calldata _data) external {\n        this.batchTransfer(_to, _ids, _values);\n\n        for (uint256 i = 0; i < _ids.length; ++i) {\n            // solium-disable-next-line arg-overflow\n            require(_checkAndCallSafeTransfer(msg.sender, _to, _ids[i], _values[i], _data));\n        }\n    }\n\n//////////////////////////////// IERC1155BatchTransferExtended ////////////////////////////////////\n\n    // Optional meta data view Functions\n    // consider multi-lingual support for name?\n    function name(uint256 _id) external view returns (string memory) {\n        return items[_id].name;\n    }\n\n    function symbol(uint256 _id) external view returns (string memory) {\n        return symbols[_id];\n    }\n\n    //my chnges\n    function decimals(uint256 _id) external view returns (uint8) {\n        return _decimals[_id];\n    }\n\n    function totalSupply(uint256 _id) external view returns (uint256) {\n        return items[_id].totalSupply;\n    }\n\n    function uri(uint256 _id) external view returns (string memory) {\n        return metadataURIs[_id];\n    }\n\n    function token(uint256 _id) external view returns (string memory, string memory, uint256, string memory) {\n        return (items[_id].name, symbols[_id], items[_id].totalSupply, metadataURIs[_id]);\n    }\n\n////////////////////////////////////////// OPTIONALS //////////////////////////////////////////////\n\n\n    function multicastTransfer(address[] calldata _to, uint256[] calldata _ids, uint256[] calldata _values) external {\n        for (uint256 i = 0; i < _to.length; ++i) {\n            uint256 _id = _ids[i];\n            uint256 _value = _values[i];\n            address _dst = _to[i];\n\n            items[_id].balances[msg.sender] = items[_id].balances[msg.sender].sub(_value);\n            items[_id].balances[_dst] = _value.add(items[_id].balances[_dst]);\n\n            emit Transfer(msg.sender, msg.sender, _dst, _id, _value);\n        }\n    }\n\n    function safeMulticastTransfer(address[] calldata _to, uint256[] calldata _ids, uint256[] calldata _values, bytes calldata _data) external {\n        this.multicastTransfer(_to, _ids, _values);\n\n        for (uint256 i = 0; i < _ids.length; ++i) {\n            // solium-disable-next-line arg-overflow\n            require(_checkAndCallSafeTransfer(msg.sender, _to[i], _ids[i], _values[i], _data));\n        }\n    }\n\n////////////////////////////////////////// INTERNAL //////////////////////////////////////////////\n\n    function _checkAndCallSafeTransfer(\n        address _from,\n        address _to,\n        uint256 _id,\n        uint256 _value,\n        bytes memory _data\n    )\n    internal\n    returns (bool)\n    {\n        if (!_to.isContract()) {\n            return true;\n        }\n        bytes4 retval = IERC1155TokenReceiver(_to).onERC1155Received(\n            msg.sender, _from, _id, _value, _data);\n        return (retval == ERC1155_RECEIVED);\n    }\n}\n",
  "sourcePath": "/home/jaynil/Desktop/abc/contracts/ERC1155.sol",
  "compiler": {
    "name": "solc",
    "version": "0.5.0+commit.1d4f565a.Emscripten.clang"
  },
  "schemaVersion": "3.0.1",
  "updatedAt": "2019-01-20T03:59:46.990Z",
  "devdoc": {
    "methods": {}
  },
  "userdoc": {
    "methods": {
      "batchTransfer(address,uint256[],uint256[])": {
        "notice": "///////////////////////////// IERC1155BatchTransferExtended ////////////////////////////////////"
      },
      "batchTransferFrom(address,address,uint256[],uint256[])": {
        "notice": "///////////////////////////////// IERC1155BatchTransfer ////////////////////////////////////////"
      },
      "multicastTransfer(address[],uint256[],uint256[])": {
        "notice": "/////////////////////////////////////// OPTIONALS //////////////////////////////////////////////"
      },
      "name(uint256)": {
        "notice": "///////////////////////////// IERC1155BatchTransferExtended ////////////////////////////////////"
      },
      "transfer(address,uint256,uint256)": {
        "notice": "//////////////////////////////////// IERC1155Extended //////////////////////////////////////////"
      }
    }
  }
}